:020000040800F2
:1000000008080020010100086D2700086527000886
:1000100069270008F10600088D270008000000008D
:10002000000000000000000000000000752700082C
:100030000107000800000000712700087927000868
:100040001B0100081B0100081B0100081B01000820
:100050001B0100081B0100081B0100081B01000810
:100060001B0100081B0100081B010008F506000821
:100070001B0100081B0100081B0100081B010008F0
:100080001B0100081B0100081B0100081B010008E0
:100090001B0100081B0100081B0100081B010008D0
:1000A0001B010008812700081B0100081B01000834
:1000B0001B0100081B0100081B0100081B010008B0
:1000C0001B0100081B0100081B0100081B010008A0
:1000D0001B0100081B0100081B0100081B01000890
:1000E000050700081B0100081B010008DFF80CD001
:1000F00000F044FA004800471531000808080020C5
:100100000648804706480047FEE7FEE7FEE7FEE7B1
:10011000FEE7FEE7FEE7FEE7FEE7FEE77D270008D5
:10012000ED00000880EA010210B502F00043400033
:1001300022D04A001FD0010E01EB1261C0F356001D
:10014000C2F3560240F4000042F40002A0FB022079
:1001500000047F39140400D0401C50EA124001D43E
:100160004000491EC2B20C0604EBD010401C4008EF
:10017000802A02D003E0002010BD20F001000029F9
:1001800000DA0020184310BD30B480EA010202F00A
:10019000004530F0004221F0004013D090B1C30D73
:1001A000D40DC2F31601C0F31600E41A41F40001A5
:1001B00040F400027D34914201D3641C00E0490008
:1001C000002C02DA30BC002070474FF400000023FE
:1001D000914201D3891A034340084FEA4101F7D104
:1001E00051B1914202D14FF0004105E002D24FF0EF
:1001F000010101E06FF0010103EBC450284430BC61
:1002000000F027B92DE9FE4F81EA030404F0004411
:1002100021F0004100944FF0000B23F0004350EA1E
:1002200001045ED052EA03045BD0C3F30A54C1F365
:100230000A552C44A4F2F3340194A0FB0254C1F3F8
:10024000130141F48011C3F3130343F4801301FB42
:10025000024400FB034E840A970A44EA815447EAA9
:100260008357A4FB076802958D0A05FB07854FEAB3
:10027000932C04FB0C542705029D4FEA065847EACD
:100280001637B5EB08056EEB070C870E920E47EAA2
:10029000811742EA8312A7FB0201B6EB0B0164EB64
:1002A00000042B0D43EA0C335E1844EB1C50DA4675
:1002B0005146E7FB0201C5F313044FEA0B3343EA4F
:1002C00014534FEA0432019C43EA0603A4F10C04E0
:1002D0000294009CCDE900B400F001F903B0BDE840
:1002E000F08F00200146F9E7002801DBC0F1004053
:1002F000002901DBC1F10041814201D80120704792
:1003000000207047002801DBC0F10040002901DB1C
:10031000C1F10041814201D30120704700207047A4
:10032000002801DBC0F10040002901DBC1F10041E0
:10033000814201D90120704700207047C10F80EA37
:10034000E0700844CA079623002100F08BB80EB570
:10035000C10F80EAE0700844CA07002140F233432D
:100360008DE80E000A460B4600F0B9F803B000BD58
:100370000EB540F2334102910021CDE900110A4649
:100380000B4600F0ACF803B000BD00F0004220F0D6
:100390000040C10DC0F3160040F400007F2901DACF
:1003A00000207047962903DCC1F19601C84001E0A6
:1003B00096398840002AF4D04042704770B5C1F3A6
:1003C0000A5201F000450024C1F3130140F2FF334B
:1003D00041F480119A4201DA002070BD40F23343AB
:1003E0009A42A2F2334203DC524200F022F800E0CB
:1003F00090402C43F1D0404270BD01F0004330B436
:1004000021F0004150EA010206D00A0DA2F5607207
:10041000C1F31301002A02DC30BC00207047440FF6
:1004200044EAC104C100E01830BC00EBC25000F047
:1004300010B8202A04DB203A21FA02F0002170478C
:1004400021FA02F3D040C2F120029140084319463C
:1004500070470029A8BF7047401C490008BF20F022
:100460000100704710B4B0FA80FC00FA0CF050EABA
:10047000010404BF10BC704749B1CCF1200421FA3B
:1004800004F411FA0CF118BF012121430843A3EB36
:100490000C01CB1D4FEA00614FEA102042BF002043
:1004A00010BC704700EBC35010440029A4BF10BC1F
:1004B0007047401C490008BF20F0010010BC704785
:1004C00010B5141E73F1000408DA401C41F100015C
:1004D00092185B411A4301D120F0010010BD2DE9B3
:1004E000F04D92469B4611B1B1FA81F202E0B0FAAA
:1004F00080F22032904600F059F804460F4640EA58
:100500000A0041EA0B0153465A46084313D01146EC
:1005100053EA010019D0C8F140025046FFF789FFA5
:1005200005460E4650465946424600F03FF80843FD
:1005300005D0012004E020463946BDE8F08D0020BA
:10054000054346EAE0762C4337430A986305E40AFC
:10055000A0EB08000022FD0A44EA47540A3002D505
:1005600000200146E9E7010510196941DDE9084568
:1005700000196941BDE8F04DA2E700001CB509482B
:100580000090094801900546009C06E0E06840F0B4
:10059000010394E8070098471034AC42F6D3FFF704
:1005A000A9FD00008C5D0008AC5D0008202A04DB7A
:1005B000203A00FA02F1002070479140C2F1200376
:1005C00020FA03F319439040704700000146406A47
:1005D000826A12F0500F03D0006A026B084610477F
:1005E0000168826A42F400728262896801F46021C3
:1005F000B1F5602F01D1017B11B100F0ADB900BFA1
:10060000816A21F480718162816AC90448BF00F067
:10061000A3B9816A41F00101816200F09DB9000037
:10062000406A816A41F040018162C16A41F004017F
:10063000C16200F095B90000406A00F08FB9000077
:10064000B0B582B004460020019021688A68D207C4
:100650004BD1886840F00100886040F26400C2F22B
:10066000000000684DF68361C4F21B31A0FB01015C
:10067000880C01900198A0B101980138019001986F
:1006800078B1019801380190019850B10198013872
:100690000190019828B10198013801900198002833
:1006A000EAD100F0B7FE21688968C9071CD1054668
:1006B00003E000BF8068C00716D100F0ABFE411B0D
:1006C00020680329F6D38168C907F3D1A06A40F0F6
:1006D0001000A062E06A40F00100E062002084F8AF
:1006E0002400012002B0B0BD002002B0B0BD000067
:1006F000FEE7000040F2A800C2F2000000F0C6BA17
:10070000704700004FF4004000F064BDEFF310802C
:1007100072B600BFFEE7000070B542F20C06044658
:10072000C4F2020600F076FE3168C9071CD13068B9
:10073000800644BF202030603068C00607D430698E
:10074000C00704D1306840075CBF002070BD30682E
:10075000C00640F2E030C2F2000021D4002132682D
:10076000520725D42AE000BFC4B10546601C10D151
:100770003068C007DBD03068C0071CBF30685FEA54
:10078000C070D4D03068C007F2D1D0E73068C0075D
:10079000CDD000F03FFE401BA042F7D9032070BD32
:1007A000C16941F00201C16110213268520705D5CB
:1007B000C26941F0040142F00102C2613269D2070C
:1007C00002D10120316070BDC26942F00402C261F1
:1007D000306920F0010030610120316070BD0000FF
:1007E00010B581B00022009290F82420012A03D194
:1007F0000221084601B010BD4B680122062B80F88B
:10080000242033D8D0F800C003EB83035A1F1F23E2
:10081000DCF834E003FA02F40B682EEA040403FA6D
:1008200002F22243CCF83420092B03EB430249D9CE
:10083000DCF80CE01E3A0724896894402EEA040490
:10084000914023F001022143102ACCF80C1043D12F
:1008500042F20841C4F20101A1F10802944543D0DB
:10086000816A41F020018162012136E0D0F800C0A8
:100870000C2B03EB830213D8233A1F23DCF830E060
:1008800003FA02F40B682EEA040403FA02F222438C
:10089000CCF83020092B03EB4302C9D812E000BF8B
:1008A000413A1F23DCF82CE003FA02F40B682EEA2D
:1008B000040403FA02F22243CCF82C20092B03EBA8
:1008C0004302B5D8DCF81030072489689440A3436C
:1008D00091401943CCF810100021002280F8242008
:1008E000084601B010BD00BF0A681202F4D40A68BD
:1008F000102B42F400020A60EED140F26401C2F211
:10090000000109684DF68362C4F21B32A1FB02129A
:10091000910C01EB81014900009100990029DBD085
:1009200000990139009100990029D5D00099013929
:10093000009100990029CFD00099013900910099C8
:100940000029C9D0009901390091009900294FF080
:100950000001E5D1C1E700007047000070470000CA
:1009600070470000002804BF01207047B0B504465E
:10097000806A28B121688868C0070CD115E000BFE3
:100980000020E06284F82400204600F097F82168F7
:100990008868C00709D0886820F00100886000F0EE
:1009A00039FD21688A68D20726D1A06AC0063AD4E8
:1009B000A06A41F2021290430230A062E069D4E9D9
:1009C000013240EA030C531EB3FA83F35D09134668
:1009D000B2F5807F18BF2B02207D257B01284CEAD1
:1009E00045002CD135B3A56A45F02005A562E56A1E
:1009F00045F00105E56222E0054602E08868C0078F
:100A0000D3D000F007FD401B21680328F6D3886887
:100A1000C007F3D0A06A40F01000A062E06A40F086
:100A20000100E062A06AA06A40F01000A06201200C
:100A3000B0BD00BFA56903EB4533A3F5C0534D68B6
:100A4000B2F5807F25F4694543EA05034B608B6866
:100A50004FF2FD75CFF6E17503EA050343EA0003A3
:100A60008B6001D0012A07D122690023CFF6F073F1
:100A700003EB025201E000BF0022CB6A23F47003B3
:100A80001A43CA62896840F6FE62CFF61F721140AF
:100A9000814207D10020E062A16A012262F30101D4
:100AA000A162B0BDA06A40F0100020F00200A06278
:100AB000E06A40F00100E0620120B0BD70B586B090
:100AC000044640F60000C4F20100216800F5E0523F
:100AD000002691420596CDE90366029602D006B043
:100AE00070BD00BF41F21801C4F202010A6842F46D
:100AF00000720A600A6802F400720192019A0A68A0
:100B000042F004020A60096801F0040101910199B0
:100B1000FF2102910321039102A900F067FB40F23B
:100B2000A8050820C2F20005C4F202004FF480724A
:100B3000C5E9000605F1100080214FF480634FF0F5
:100B4000200C4FF4805E80E80C502846C5E9026115
:100B500000F06CF9002818BFFFF7D8FD25626C6221
:100B600006B070BDF0B581B0036842F60006C4F26D
:100B70000106B34205D042F20046C4F20106B34278
:100B80000AD142F20443C4F201031B6813F4702F2C
:100B900002D0012001B0F0BD90F82430012B03D128
:100BA000022001B0F0BD00BF0D460121174680F8BC
:100BB00024100646FFF744FD30B1002086F82400DB
:100BC000012001B0F0BD00BF42F204403168B36AB9
:100BD000C4F20100324640F60176B34300F57F7659
:100BE00003F58073B142936244D0906A20F4801080
:100BF00090624868400504D5906A012363F30D3084
:100C00009062936A0020DB044FF0000344BFD36A74
:100C100023F00603D36282F82400106A40F2CD5319
:100C200040F23966C0F60003C0F6000640F22164C7
:100C3000C0F60004C0E90A366FF0020304630B60DB
:100C40008B68144643F480738B604C312A463B46D4
:100C500000F02EF92068816801F460228168B2F505
:100C6000602F0CBF41F4A00141F48011816000208D
:100C700001B0F0BD036813F4702FB6D0936A43F44B
:100C80008013936200684005B6D4BAE710B5D0E986
:100C90000FCE0168DCF800300A6823FA0EF35C0717
:100CA0002AD512F0040427D00A68920603D40A68F1
:100CB00022F004020A602F22C4F20202914240F2A2
:100CC0000402C4F202025BDD3023C4F20203994243
:100CD00072D04423C4F20203994273D05823C4F261
:100CE0000203994240F07A804FF480231360C16A76
:100CF000002940F098806FE09C0727D512F002048D
:100D000024D00A68920606D40A6822F00A020A6011
:100D1000012280F821202F22C4F20202914240F2E7
:100D20000402C4F202023BDD3023C4F20203994202
:100D300060D04423C4F2020399425FD05823C4F226
:100D40000203994260D14FF4003365E01B0743D59D
:100D500012F0080208BF10BD0A6822F00E020A60F5
:100D6000012101FA0EF2CCF80420816380F82110F1
:100D7000016B0022002980F8202054D12CE000BF14
:100D80000823C4F20203994222D01C23C4F20203B6
:100D9000994223D140231360C16A002943D11BE04B
:100DA0000823C4F2020399422CD01C23C4F202038C
:100DB000994229D120232FE04FF480631360C16A48
:100DC00089BB09E04FF480431360C16A59BB03E05B
:100DD00004231360C16A31BB10BD00BF02F1680477
:100DE0004FF08063A14208BF4FF480031360C16AD3
:100DF000C9B9F1E74FF400730EE000BF4FF40053A0
:100E00000AE000BF022307E002F168044FF000731C
:100E1000A14208BF4FF400131360816A0022002929
:100E200080F82020D8D0BDE81040084701460028AF
:100E30004FF0010008BF70472DE9F043D1F800C022
:100E40004FF6F873CBF6FD734CF6CD426344CCF607
:100E5000CC42A3FB02236FF0030202EA93020023B9
:100E6000C4F2020301F10C08C1E90F320222D1E9F8
:100E7000019E98E8F00181F82120DCF8002043F67B
:100E8000F0739A4342EA090242EA0E0222432A43DD
:100E900032433A4342EA0802CCF8002000228A6337
:100EA00081F8210081F820200020BDE8F043704740
:100EB00090F820C0BCF1010F04BF02207047F0B5CC
:100EC0004FF0010E80F820E090F821C0BCF1010F36
:100ED00026D14FF0020C80F821C04FF0000CC0F872
:100EE00038C0D0E900C4C56AC66BDCF80070102CAD
:100EF00027F00107CCF80070006C0EFA00F070606B
:100F00000846CCF8043004BF10460A46CCF8080066
:100F1000CCF80C20DCF8000045B140F00E000DE0EC
:100F2000002180F820100220F0BD00BF20F0040056
:100F3000CCF80000DCF8000040F00A00CCF800001B
:100F4000DCF8000040F00100CCF800000020F0BD0B
:100F5000B0B5044600F05EFA054640F25C00C2F20D
:100F600000000078611C18BF044400BF00F052FA72
:100F7000401BA042FAD3B0BD2DE9F04381B040F24E
:100F8000E035C2F200052A7E012A03D1022001B019
:100F9000BDE8F08304460120266828764CF25030E4
:100FA0008846FFF7B9FB022E1CD100284ED1002045
:100FB00042F21004E861C4F20204206840F0040028
:100FC0002060206840F0400020604CF25030FFF775
:100FD000A3FB216821F0040121600021297601B0E2
:100FE000BDE8F08390BB4FF0FF30C8F80000D4E9B3
:100FF0000270414607EB8020874227D242F210065A
:10100000C4F202064FF00009C5F81C90306840F0A9
:10101000020030607760306840F0400030604CF291
:101020005030FFF779FB316821F00201316098B947
:10103000D4E9020107F5806700EB81208742E3D302
:1010400000200021297601B0BDE8F08301200021B5
:10105000297601B0BDE8F083C8F800700021297638
:1010600001B0BDE8F083000042F21001C4F20201B9
:10107000086840F0800200200A6070472DE9F043C4
:1010800081B040F2E037C2F2000716463A7E012AEC
:1010900004D1022001B0BDE8F08300BF0546012065
:1010A00038764CF250300C469846FFF735FB28B1A5
:1010B0000021397601B0BDE8F08300BF42F210098B
:1010C0000020C4F20209F861D9F8000040F00100E4
:1010D000C9F800004CF250302680FFF71DFBD9F80C
:1010E0000010002821F00101C9F8001018BF0046C7
:1010F000DED1012DDCD00020F861D9F80000310CE0
:1011000040F00100C9F800004CF250306180FFF758
:1011100003FBD9F80010002821F00101C9F80010E4
:10112000C6D1E81E10F1030F4FF00000C0D8F861DF
:10113000D9F8000040F00100C9F800004CF250302E
:10114000A4F80480FFF7E8FAD9F80010002821F08D
:101150000101C9F80010ABD10020F861D9F80000F6
:101160004FEA184140F00100C9F800004CF250303D
:10117000E180FFF7D1FAD9F80010002821F0010131
:10118000C9F8001018BF00460021397601B0BDE84B
:10119000F083000042F20400C4F20200C1680906B4
:1011A0005CBF0020704740F22311C4F26751016018
:1011B00048F6AB11CCF6EF510160C068C0B2C0096F
:1011C0007047000040F2EC00C2F20000183004F05A
:1011D00079BB000040F21441C4F201010A680242E6
:1011E00014BF08607047FFF7EDBF00002DE9F04F16
:1011F00082B00E68002E00F0FD8041F20042C4F281
:101200000102042340F2004E904208BF03234FF630
:10121000FF7CC4F2010E009300240123C1F2100CE4
:101220004FF0000A4FF000094BE000BF41F200020E
:10123000C4F20102009F904208BF022704F00C0391
:101240000F229A402BEA020207FA03F34FEA9A05AB
:101250001A4346F825204E6840F20C45F202DEF8AB
:10126000082054BF22EA080242EA0802C4F201053B
:10127000CEF808202A68B30254BF22EA080242EAE4
:1012800008022A60B303DEF8042054BF22EA0802F1
:1012900042EA0802F303CEF80420DEF800204FF003
:1012A000010354BF22EA080242EA0802CEF80020F5
:1012B0000E680AF1010A36FA0AF204F1040400F099
:1012C000998003FA0AFB16EA0B08F1D04E686645CE
:1012D00012DC122E56D8DFE806F0350B4D49555575
:1012E000555555555555555555555545510000BF02
:1012F000D1F80C9046E000BF4FF6FF72C1F2210218
:1013000096420FDC0022C1F2110296421AD000224E
:10131000C1F21202964215D00022C1F22102964279
:1013200010D02FE00022C1F2220296420AD0002201
:10133000C1F23102964205D00022C1F23202964239
:1013400020D100BF8A684AB1012A14BFC0F814B086
:10135000C0F810B04FF0080914E000BF4FF00409C6
:1013600010E000BFCA6802F104090BE04FF0000969
:1013700008E000BFCA6802F1080903E0CA6802F188
:101380000C0900BF02462646B8F5807F24BF043210
:10139000203E17680F25B54027EA050509FA06F62D
:1013A00035431560CA79D2067FF582AF41F2180342
:1013B000C4F202031A68AEF57E7642F001021A60AA
:1013C0001A6802F001020192019A2AF0030256F80B
:1013D00002B040F60002C4F20102904208D040F68A
:1013E0000042C4F2010290427FF420AF012725E7BA
:1013F000002723E702B0BDE8F08F000080680840B6
:1014000018BF012070470000002A08BF09040161CD
:101410007047000040F20440C2F2000000687047CC
:1014200040F25C0040F20441C2F20000C2F200014E
:1014300000780A68104408607047000080B542F2E6
:101440000000C4F20200016841F0100101600320B5
:1014500000F08CF8002000F005F800F027F80020DC
:1014600080BD000070B540F25C06C2F2000640F29A
:1014700064013278C2F200014FF47A730968B3FB59
:10148000F2F20446B1FBF2F1084600F0DFFB0F2C4C
:101490004FF0010508D838B94FF0FF30214600223F
:1014A000002500F037F87460284670BD82B041F224
:1014B0001800C4F202000168022241F0010101603B
:1014C000016801F0010101910199416841F08051E9
:1014D0004160406800F08050009000980420C4F201
:1014E0000100016862F31A61016002B070470000F8
:1014F000002848BF704700F01F01012202FA01F1E5
:101500001C2202EAD0004EF20012CEF200028150FC
:101510007047000010B54EF60C5CCEF2000CDCF803
:101520000030C3F3022E8EF00704042C28BF0424DD
:10153000BEF103034FF0FF3E0EFA04F438BF002360
:10154000A14399400EFA03F39A43114300F00F02AE
:1015500000F160430901043A03F564436244002842
:1015600048BF02F10C03197010BD00004EF60C517B
:10157000CEF200010A684FF6FF031A4060F30A2218
:1015800042F0806040F0FD70086070472DE9F04146
:1015900082B00446007841F21C06C007C4F202067D
:1015A0004AD030685FEAC00808D4306840F0805004
:1015B0003060306800F080500190019847F20007D9
:1015C000C4F200073868C00512D4386840F480704F
:1015D0003860FFF71FFF05463868C00508D4FFF7DD
:1015E00019FF401B6428F7D9032002B0BDE8F08141
:1015F000706810F4407012D0616801F44071884244
:101600000DD0706840F24042C4F24222012320F41F
:10161000407113600023C0071360716026D17068A9
:10162000616820F440700843B8F1000F706003D483
:10163000306820F0805030602068810707D556F868
:10164000181CA26821F44041114346F8181CC0063A
:1016500007D556F8180CE16820F48000084346F8D6
:10166000180C002002B0BDE8F08100BFFFF7D2FEE9
:10167000054641F2883700BF70688007CFD4FFF776
:10168000C9FE401BB8424FF00300F5D9EAE700005D
:10169000002804BF012070472DE9F04381B042F2D9
:1016A0000008C4F202080446D8F800000D4600F015
:1016B000070088420CD2D8F8000020F00700284329
:1016C000C8F80000D8F8000000F00700A8426CD16C
:1016D000206841F204098107C4F2020917D54107C5
:1016E00005D5D9F8001041F4E061C9F800100107F0
:1016F00005D5D9F8001041F46051C9F80010D9F8A7
:101700000010A26821F0F0011143C9F80010C007D1
:1017100042D1D8F8000000F00700A8420CD9D8F850
:10172000000020F007002843C8F80000D8F80000A7
:1017300000F00700A84238D12068410707D5D9F842
:101740000010E26821F4E0611143C9F800100007BD
:1017500008D5D9F80000216920F4605040EAC100A2
:10176000C9F80000D9F8002002F00C00082841F266
:101770000020C0F27A004DD145F67C53C2F383417C
:10178000C0F60003595CD20338D440F60010C0F212
:101790003D0048433EE000BF606859F8041C022841
:1017A00008D0012826D1890306D4012001B0BDE864
:1017B000F08300BF8901F8D5D9F8001021F00301AA
:1017C0000843C9F80000FFF725FE064641F28837B6
:1017D000D9F80000616800F00C00B0EB810F98D0E0
:1017E000FFF718FE801BB842F2D9032001B0BDE814
:1017F000F08300BF8907D8D5DEE700BFD9F8002005
:1018000045F64853C2F34042C0F600039A5C484391
:10181000B0FBF2F0D9F8001045F63852C1F30311CD
:10182000C0F60002515C40F2640220FA01F140F27D
:101830006000C2F200000068C2F200021160FFF70F
:1018400011FE002001B0BDE8F0830000002804BFB5
:10185000012070472DE9F04182B00446007841F242
:101860000006C007C4F202060CD0706800F00C003D
:10187000042840F081803068800303D56068002828
:1018800000F04681207880071BD5706810F00C0F9F
:1018900009D0706800F00C00082840F0878070685C
:1018A000C00300F183803068800703D520690128D8
:1018B00040F02E813068616920F0F80040EAC100F4
:1018C00030602078000713D4207840072CD4E569D5
:1018D000002D00F01881706800F00C00082840F01E
:1018E000A780012D40F00481012002B0BDE8F08105
:1018F000A069002800F084800020C4F24220012169
:10190000C0F88014FFF786FD054600BF706A8007A7
:1019100000F1B280FFF77EFD401B0228F6D90320BC
:1019200002B0BDE8F08100BFF0695FEAC00808D4EA
:10193000F06940F08050F061F06900F08050009054
:10194000009847F20007C4F200073868C00549D480
:10195000386840F480703860FFF75CFD054600BFD2
:101960003868C0053ED4FFF755FD401B6428F7D901
:10197000032002B0BDE8F081706800F00C00082878
:1019800003D17068C0033FF576AF61683068002905
:1019900000F00C81B1F5A02F00F00081B1F5803F7F
:1019A00040F01A8140F480301CE100BF206900281B
:1019B00040F20000C4F2422000F088800121016062
:1019C000FFF728FD054600BF306880073FF572AF7E
:1019D000FFF720FD401B0228F6D9032002B0BDE826
:1019E000F08100BFE168306A002900F09D80052980
:1019F00000F09280012940F0AF8040F00100B1E09A
:101A00000020C4F242200021C0F88014FFF702FD3C
:101A1000054600BF706A80077FF556AFFFF7FAFCF6
:101A2000401B0228F6D9032002B0BDE8F08100BFB8
:101A30000027C4F2422700203866FFF7EBFC022D96
:101A400005460DD13068800140F1DE80FFF7E2FCF1
:101A5000401B02284FF00300F4D902B0BDE8F0812A
:101A6000306880014FD5FFF7D5FC401B02284FF0AE
:101A70000300F5D9F1E700BF40F26400C2F20000B4
:101A8000006844F6D351C1F26201A0FB0101480A8B
:101A9000019000BF00BF0198411E002801913FF452
:101AA00013AF00BF0198411E002801913FF40CAF15
:101AB00000BF0198411E002801913FF405AF00BF0F
:101AC0000198411E00280191E4D1FDE6002101604A
:101AD000FFF7A0FC054600BF306880077FF5F1AE38
:101AE000FFF798FC401B02284FF00300F4D9B4E73D
:101AF0007068216A00F480328A4209D1616A00F478
:101B00007010884204D1002002B0BDE8F08100BF0F
:101B1000012002B0BDE8F08140F004003062306A7C
:101B200040F001001EE000BF20F001003062306A8A
:101B300020F004003062FFF76DFC054641F2883763
:101B4000306A800720D5FFF765FC401BB8424FF094
:101B50000300F5D981E700BF20F001003062306A50
:101B600020F004003062FFF755FC054641F288374B
:101B7000306A800708D4FFF74DFC401BB842F7D904
:101B8000032002B0BDE8F081B8F1000F3FF59FAE31
:101B9000F06920F08050F06199E600BF40F48020A9
:101BA0003060306840F480301CE000BF20F48030AA
:101BB0003060306820F480203060FFF72BFC054651
:101BC000306880037FF55EAEFFF724FC401B64287D
:101BD0004FF00300F4D940E720F4803030603068E3
:101BE00020F480203060FFF715FC05463068800344
:101BF0003FF548AEFFF70EFC401B6428F6D90320E2
:101C000002B0BDE8F08100BF206AB0F5803F05D189
:101C10007168A26821F40031114371607168626AD1
:101C200021F4741111430843706001203866FFF7F6
:101C3000F1FB0446306880013FF565AFFFF7EAFB32
:101C4000001B02284FF00300F4D906E7411E0020D4
:101C5000B0EB116F1CBF012070474EF21002CEF2A4
:101C6000000251604EF62351CEF20001F0230B70BA
:101C700007219060116070477047000070470000B6
:101C800090F83C20012A4FF0020236D010B580F8BF
:101C90003D200268D2F804E0D2F808C00C682EF0AB
:101CA0007003234340F2FF74C4F20004A242536065
:101CB0000ADCB2F1804F13D040F20043C4F20003BB
:101CC0009A420DD011E000BF42F60043C4F2010376
:101CD0009A4205D040F60003C4F200039A4204D1B0
:101CE00049682CF08003194391600121002280F89B
:101CF0003D1080F83C20BDE81040104670470000C1
:101D0000002804BF0120704710B590F83D1031B98C
:101D1000002180F83C10044600F068F820460221BB
:101D200080F83D10016840F2FF740B68C4F20004B3
:101D300042F6004CA142C4F2010C15DCB1F1804F17
:101D40001AD040F20042C4F20002914214D0A142E3
:101D500018DCB1F1804F1DD040F20042C4F2000205
:101D6000914217D01AE000BF614505D040F600024D
:101D7000C4F200029142EAD1826823F07003134357
:101D8000A142E6DD614505D040F60002C4F2000242
:101D9000914203D1026923F440731343846923F011
:101DA0008002D0F804E0C368224361450A60CB6238
:101DB000C1F828E002D14269CCF8302001224A6102
:101DC00080F8462080F83E2080F83F2080F84020B0
:101DD00080F8412080F8422080F8432080F8442099
:101DE00080F8452080F83D20002010BD80B582B0ED
:101DF000006840F60001C4F2000188421ED042F69D
:101E00000041C4F20101884225D141F21800C4F218
:101E100002000168002241F40061016000680121B4
:101E200000F40060019001981920FFF773FB19205E
:101E300002B0BDE88040FFF75BBB00BF41F2180075
:101E4000C4F20200416841F004014160406800F0C2
:101E500004000090009802B080BD000090F83D1092
:101E600001291CBF01207047022180F83D10006845
:101E700040F2FF71C4F20001884209DCB0F1804FEA
:101E800012D040F20041C4F2000188420CD012E0AE
:101E900042F60041C4F20101884205D040F600013B
:101EA000C4F20001884206D1816801F007010629C9
:101EB00004BF00207047016841F00101016000206B
:101EC0007047000090F83D1001291CBF01207047A9
:101ED000022180F83D10006840F2FF72C168C4F230
:101EE0000002904241F00101C16009DCB0F1804F75
:101EF00012D040F20041C4F2000188420CD012E03E
:101F000042F60041C4F20101884205D040F60001CA
:101F1000C4F20001884206D1816801F00701062958
:101F200004BF00207047016841F0010101600020FA
:101F3000704700000146006841F21113026A1A421C
:101F400004D00122002081F83D207047026A40F24F
:101F500044431A42F5D1026822F0010202600122D4
:101F6000002081F83D20704790F83C20012A4FF076
:101F700002026CD080B580F83D20D0F800C04FF64A
:101F80007772DCF8083023EA0202CCF808200B68EC
:101F90004F2B29DC1F2B45DD202B46D0302B44D086
:101FA000402B40F0AF80D1F804E0C968DCF8203065
:101FB000DCF8202022F00102CCF82020DCF81820E8
:101FC00022F0F00242EA011123F00A0242EA0E0274
:101FD000CCF81810CCF82020DCF8081041F04701AC
:101FE00021F0300128E000BF6F2B33DDB3F5005F37
:101FF00074D0B3F5805F21D0702B40F08380D1E99D
:1020000001E3C968DCF8082043EA0E0322F47F42AA
:1020100043EA01211143CCF80810DCF8081041F024
:10202000770109E00BB1102B6CD1DCF8081021F01E
:102030007001194341F00701CCF80810002201217A
:1020400080F83D10002180F83C10BDE8804010462B
:10205000704700BF502B21D0602B53D1D1F804E042
:10206000C968DCF82030DCF8202022F01002CCF81F
:102070002020DCF8182022F4704242EA013123F0DB
:10208000A00242EA0E12CCF81810CCF82020DCF89E
:10209000081041F0670121F01001CDE7D1F804E00C
:1020A000C968DCF82030DCF8202022F00102CCF8EE
:1020B0002020DCF8182022F0F00242EA011123F07F
:1020C0000A0242EA0E02CCF81810CCF82020DCF804
:1020D000081041F0570121F02001ADE7D1E901E3FB
:1020E000C968DCF8082043EA0E0322F47F4243EA81
:1020F00001211143CCF80810DCF8081041F48041AC
:102100009AE700BF01229AE77047000010B5016806
:1021100004460869800744BFC8685FEA807039D404
:102120000869400744BFC8685FEA40703ED4086948
:10213000000744BFC8685FEA007045D40869C0065C
:1021400044BFC8685FEAC0604AD40869C0071CBFC2
:10215000C8685FEAC07051D10869000644BFC8680A
:102160005FEA006052D40869400644BFC8685FEA6D
:10217000406053D40869800646BFC8685FEA806043
:1021800010BD6FF0200220460A61BDE81040FFF745
:1021900075BD00BF6FF002000861012020778869DB
:1021A000800743D02046FFF7AFFF45E06FF0040003
:1021B000086102202077886910F4407F40D02046D3
:1021C000FFF7A2FF42E000BF6FF0080008610420A3
:1021D0002077C86980073DD02046FFF795FF3FE094
:1021E0006FF01000086108202077C86910F4407F64
:1021F0003AD02046FFF788FF3CE000BF6FF00100B7
:102200000861204600F0A6FA2168A5E76FF080007B
:1022100008612046FFF730FD2168A4E76FF0400019
:102220000861204600F09CFA2168A3E7204600F0F0
:102230007DF8204600F01EFA2168002020776FE725
:10224000204600F073F8204600F014FA21680020C0
:1022500020776CE7204600F069F8204600F00AFA83
:1022600021680020207769E7204600F05FF82046CB
:1022700000F000FA21680020207766E780B586B07C
:10228000006840F20041C4F2000188424FF00001B2
:10229000CDE90411CDE902112CD0B0F1804F42D12B
:1022A00041F21800C4F20200016841F00801016027
:1022B000006802A900F00800019001984FF4406006
:1022C000029002200390059040F60040C4F2010005
:1022D000FEF78CFF0420C4F2010001684FF6FF42B4
:1022E000CFF6FF02114041F0E06141F4007101605E
:1022F00006B080BD41F21800C4F20200016841F04E
:1023000008010160006802A900F00800019001982E
:102310000120029002200390059040F60040C4F294
:102320000100FEF763FF06B080BD000070470000AB
:1023300090F83C30012B04BF022070474FEAB202F4
:10234000032A00F2F1802DE9F043DFE802F003A553
:102350003B7500BF036842F600461D6A1A6AC4F264
:10236000010622F001021A621A465C6852F818CF80
:10237000B3428E68D1F800E025F0020545EA060573
:102380000CD1CE68D1E9057824F4407425F00C0511
:1023900026F004063C43354344EA08042CF0730756
:1023A00047EA0E075C609F614F6809695F631D62C1
:1023B0009F6947F008079F619F6927F004079F61A5
:1023C000A6E000BF036842F600461D6A1A6AC4F21E
:1023D000010622F480721A621A46D3F804C052F839
:1023E0001CEFB3428E680C6825F4007545EA06259B
:1023F0000FD1CE68D1E90598360240F2FF4725F4A7
:102400004065BE4335432CF4405748EA090647EA85
:10241000061C2EF073072743C3F804C0DF614F6822
:102420000969DF631D62DF6947F00807DF61DF6963
:1024300027F00407DF616BE0036842F60047D3F83A
:1024400020C01A6AC4F2010722F480521A621A46A6
:102450005C6852F81C5FD1F800E08E68BB4204D182
:102460004F6924F4804444EA87142CF4005747EA67
:10247000063725F4E64646EA0E265C60DE614E68C5
:1024800009691E641F62DF6947F40067DF61DF6965
:1024900027F48067DF613AE0036842F600461D6A70
:1024A0001A6AC4F2010622F010021A621A46D3F820
:1024B00004C052F8184FB3428E68D1F800E025F0FE
:1024C000200545EA06150FD1CE68D1E905986FF0D1
:1024D000400725F0C00507EA061635432CF440678F
:1024E00048EA090647EA860C24F4E64444EA0E2743
:1024F000C3F804C09F614F6809699F631D629F69AB
:1025000047F400679F619F6927F480679F61090214
:102510001368194311600021BDE8F043002280F8E0
:102520003C200846704700BF0121002280F83C2073
:1025300008467047002804BF0120704710B590F886
:102540003D1031B9002180F83C10044600F068F8D5
:102550002046022180F83D10016840F2FF740B68AC
:10256000C4F2000442F6004CA142C4F2010C15DC96
:10257000B1F1804F1AD040F20042C4F20002914201
:1025800014D0A14218DCB1F1804F1DD040F20042BE
:10259000C4F20002914217D01AE000BF614505D095
:1025A00040F60002C4F200029142EAD1826823F0B0
:1025B00070031343A142E6DD614505D040F60002F9
:1025C000C4F20002914203D1026923F44073134321
:1025D000846923F08002D0F804E0C3682243614597
:1025E0000A60CB62C1F828E002D14269CCF8302001
:1025F00001224A6180F8462080F83E2080F83F2082
:1026000080F8402080F8412080F8422080F8432064
:1026100080F8442080F8452080F83D20002010BD3F
:1026200082B0006840F20041C4F20001884211D03B
:10263000B0F1804F1BD141F21C00C4F202000168CE
:1026400041F001010160006800F001000190019873
:1026500002B0704741F21C00C4F20200016841F070
:1026600002010160006800F002000090009802B0D2
:102670007047000070470000C1B1042908D0082944
:1026800014BF41224022825C012A05D016E000BF1F
:102690003F22825C012A11D10222082910D004298C
:1026A00014BF80F8412080F83F200BE090F83E20D6
:1026B000012A03D1022280F83E2003E00120704766
:1026C00080F84020006801F01F010122036A8A405F
:1026D00023EA02010162036A42F64441C4F20101A5
:1026E0001A43A1F14403984202620FD040F2FF71F5
:1026F000C4F20001884213DCB0F1804F1CD040F2DC
:102700000041C4F20001884216D01CE00A6842F47D
:1027100000420A6040F2FF71C4F200018842EBDD22
:1027200042F60041C4F20101884205D040F60001A2
:10273000C4F20001884206D1816801F00701062930
:1027400004BF00207047016841F0010101600020D2
:102750007047000040F24C20C2F2000003F068B95C
:1027600070470000FEE70000FEE70000FEE7000003
:102770007047000070470000FEF752BE704700002F
:1027800040F2BC20C2F20000FFF7C0BCFEE7000030
:10279000B0B51C460B460546C5E9003200F10801FC
:1027A00018460822FEF7DEF92088A5F84800608860
:1027B000A5F84A00A088A5F84C00E088A5F84E00CE
:1027C0002089A5F850006089A5F85200A089A5F8D5
:1027D0005400E089A5F85600B0BD000070B50D4664
:1027E0000446FEF717FE8DB1064601E028040DD021
:1027F0002068A1880122FEF707FEFEF70BFEB0421B
:10280000F4D0013DFEF706FE0646EFE72068A188FA
:102810000022BDE87040FEF7F7BD00000161002115
:102820008282417370470000002908BF70472DE97C
:10283000F0410C46054640F201180027012605E04C
:102840008F814A70013C05F104052DD02968086983
:10285000898AFEF7D3FD29688A78904205D088706E
:10286000CE70FEF7D7FD29684860C87870B1FEF7D2
:10287000D1FD29684A68801A0F2807D38A78CF705B
:102880000A7048788242DDD004E000BF0A784878B8
:102890008242D7D0002AD3D1A1F80C80FEF7BAFD2E
:1028A00029680A788860CCE7BDE8F04170470000ED
:1028B00010B50446016082800020A071FEF7AAFDD9
:1028C000A06010BD70B50E460546104600211C469E
:1028D00000F0A0FF306800F045F948B16420FEF731
:1028E00037FB284603F0DCF820466421FFF776FF2B
:1028F000706800F037F9002808BF70BD6420FEF74B
:1029000027FB284603F022F920466421BDE87040E9
:10291000FFF764BF70B50E460546104601211C4600
:1029200000F078FF306800F01DF950B16420FEF728
:102930000FFB2846022103F005F92846002100F08C
:10294000CBF9706800F00EF958B16420FEF700FB77
:1029500028466FF0010103F0F5F82846002100F049
:10296000BBF9B06800F0FEF8002808BF70BD28462B
:1029700002F018FF6420FEF7EBFA20466421BDE860
:102980007040FFF72BBF000070B50C4606460846A6
:102990000621154600F03EFF304602F0B9FF002147
:1029A000C4F2F011FDF7A0FC002818BF70BD20464E
:1029B000032100F02FFFFA20FEF7CAFA284664210F
:1029C000FFF70CFF2046062100F024FFFA20BDE8A7
:1029D0007040FEF7BDBA000010B540F2D010C2F250
:1029E0000000203000F0C4F800F08104812C06D1F2
:1029F00040F2D010C2F20000002100F00BFFA4F161
:102A00008100B0FA80F0400910BD0000B0B540F27E
:102A1000D010C2F2000000F12005284600F0A8F80E
:102A200000F08100B0F1810418BF012481280DD08D
:102A3000284600F09DF8F72806D8284600F098F8B8
:102A4000F0283CBF0020B0BD022100E0002140F290
:102A5000D010C2F2000000F0DDFE2046B0BD000044
:102A6000B0B540F2D010C2F2000000F120052846B7
:102A700000F07EF800F08100B0F1810418BF01245D
:102A800081280FD0284600F073F800F00F010F29BD
:102A90004FF0010107D000F0110011281CBF0020E9
:102AA000B0BD00E0002140F2D010C2F2000000F002
:102AB000B1FE2046B0BD000080B586B00490012074
:102AC00005900020029002A801A9FEF755FA06B071
:102AD00080BD0000FEF7C8BA002A08BF7047B0B535
:102AE0004FF0000C0CF102035CF800E09BB2934243
:102AF00021F80CE018D20CF104041D581FFA84FED2
:102B00009645CD5210D20CF106035EF800409BB200
:102B1000934221F80E4007D20CF108041D581FFA09
:102B200084FC9445CD52DDD3BDE8B0407047000031
:102B3000FEF730BB002A08BF7047F0B581B01446DD
:102B40000D460646002700BFEA5BB91901200023A5
:102B5000FEF794FAB81C87B2A742F5D301B0BDE8DE
:102B6000F0407047407B002818BF012070470000EC
:102B70000189028F438F914242894FF0000188BF43
:102B800001219A424FF0000288BF0122B0F80CC028
:102B9000838F42EA410100229C4588BF01224FEA0F
:102BA000810CC389C18F4CEA420C8B424FF000016B
:102BB00088BF0121038AB0F84020614493424FF05E
:102BC000000288BF01224FEA810C438AB0F842100C
:102BD0004CEA420C8B424FF0000188BF0121838AEE
:102BE000B0F84420614493424FF0000288BF0122B4
:102BF000890041EA4201C28AB0F8460000238242BD
:102C000088BF0123C818C0B27047000071B170B509
:102C1000042901F0030C0DD200220023BCF1000FA7
:102C200035D1BDE87040C8B2704700BF0021C8B2BE
:102C3000704700BF01F0FC01A0F11003C1F1000ECC
:102C40000022002153F8104F8900647BDE68B4FA3B
:102C500084F4640941EA4401D3E90145043A647B00
:102C60006D7BB4FA84F464092144B5FA85F4757B6C
:102C70006409890041EA4401B5FA85F4640996457E
:102C80002144DFD14B005242BCF1000FC9D050F8B3
:102C90002210BCF1010F497BB1FA81F14FEA5111C9
:102CA00041EA0301BDD000EB82004268BCF1020F93
:102CB000527BB2FA82F24FEA521242EA4101B0D09C
:102CC0008068407BB0FA80F0400940EA4101BDE8ED
:102CD0007040C8B27047000082884FEAB202032AEF
:102CE00088BF7047036800891B6801EB810100EB16
:102CF000410003EB820148637047000070B506464F
:102D00001928054640F2EC00A8BF1925C2F20000C0
:102D10000C4615F1190FD8BF6FF018050C30294675
:102D2000FFF7DAFFB6F1FF3F1CDDBEB345F64A50B0
:102D3000C0F600002844132E94BFC078807A604308
:102D400000B241F27B414843C10C01EBD07041B26B
:102D500040F25410C2F2000060302246BDE87040DC
:102D600002F066BDC5F10A0045F64A51C0B2C0F690
:102D70000001085C41F27B41604300B24843C10C52
:102D800001EBD07042B240F25410C2F20000603049
:102D90002146BDE8704002F04BBD00BF40F2541028
:102DA000C2F20000603021462246BDE8704002F0C9
:102DB0003FBD0000B0B5C368C469A34216D24069E4
:102DC000834238BFB0BD40F25410C2F20000603000
:102DD0000C4600211546002202F018FD05F10F00F7
:102DE00041B22046BDE8B040FFF788BF40F2EC009A
:102DF000C2F200000C30FFF76FFF40F25410C2F235
:102E0000000000F1600420460121012202F0FEFCD6
:102E1000204600210022BDE8B04002F009BD0000BC
:102E2000B0B50446E28900680D4611460122FEF75E
:102E3000EBFA2068A1890122FEF7E6FA20682189D1
:102E400005F00102FEF7E0FA206861890122FEF731
:102E5000DBFA206861890022FEF7D6FA2068218912
:102E6000C5F34002FEF7D0FA206861890122FEF71F
:102E7000CBFA206861890022FEF7C6FA2068218912
:102E8000C5F38002FEF7C0FA206861890122FEF7CF
:102E9000BBFA206861890022FEF7B6FA2068218912
:102EA000C5F3C002FEF7B0FA206861890122FEF77F
:102EB000ABFA206861890022FEF7A6FA2068218912
:102EC000C5F30012FEF7A0FA206861890122FEF71F
:102ED0009BFA206861890022FEF796FA2068218912
:102EE000C5F34012FEF790FA206861890122FEF7CF
:102EF0008BFA206861890022FEF786FA2068218912
:102F0000C5F38012FEF780FA206861890122FEF77E
:102F10007BFA206861890022FEF776FA2068218911
:102F2000EA09FEF771FA206861890122FEF76CFA5E
:102F3000206861890022FEF767FA2068E188012293
:102F4000FEF762FA2068E1880022FEF75DFA206849
:102F5000A1890022FEF758FA2068E1890022BDE825
:102F6000B040FEF751BA000010B5B2F800C00446F8
:102F7000A0F806C05088208190886081D3880846D8
:102F8000A38111890022E18161462060FEF73CFAAD
:102F9000206821890022FEF737FA20686189002223
:102FA000FEF732FA2068E1890122FEF72DFA206847
:102FB000A1890122BDE81040FEF726BA70B582B0A3
:102FC00040F20005C2F2000505F134060446304621
:102FD000032102F0DFFC403528460321FFF724FCE3
:102FE00030460321FFF712FE072863D8DFE800F020
:102FF000043614245C46563440F2D012C2F2000269
:1030000040F2EC0302F12000C2F20003294602B0B4
:10301000BDE87040FFF756BC40F2EC03C2F200037B
:1030200040F2D01203F10C00C2F20002294602B0B5
:10303000BDE87040FFF76EBC40F25410C2F20000D1
:1030400040F2D0126030C2F20002294602B0BDE860
:10305000704000F013BB00BF02B070BD40F2D01250
:10306000C2F2000240F2EC0302F12000C2F20003BF
:10307000294602B0BDE8704002F0BABD40F2EC0251
:10308000C2F2000240F2D01102F11800C2F20001B7
:1030900002B0BDE87040FFF777BC00BF94F8510064
:1030A000002184F83A1078B1204602B0BDE87040A3
:1030B00000F0DEBB40F2D010C2F20000062102B0E8
:1030C000BDE8704000F0A6BB40F25410C2F2000010
:1030D0001830FFF747FD024640F2EC0094F8383014
:1030E00094F83960C2F2000040F2D0111830C2F2F8
:1030F0000001009602F022FB00F00101C0F3002065
:1031000084F8381084F83900204602B0BDE87040D9
:1031100000F0AEBB94B0FEF791F900240120CDE998
:103120000F44CDE90D440A900E904FF4E0104FF497
:103130008031022513900AA80394CDE90144CDE91A
:103140000B14CDE91151FEF781FB28B1EFF310808C
:1031500072B600BFFEE700BF0F20CDE904054FF4B3
:103160008060CDE9070404A802210694FEF790FAD6
:1031700020B1EFF3108072B6FEE700BF4FF0020AF5
:103180004FF400496846CDF800A0CDF80890FEF74E
:10319000FDF928B1EFF3108072B600BFFEE700BF63
:1031A0004FF0000B41F21804CDE90CBBCDE90ABB8E
:1031B000C4F20204206840F6004840F0100020608D
:1031C0002068C4F2010800F0100004900498206800
:1031D0004FF21A3140F0200020602068002200F0F9
:1031E000200004900498206840F0040020602068CB
:1031F00000F0040004900498206840F0080020606B
:10320000206800F00800049004984046FEF7FCF89F
:10321000A8F5806528464FF4F8510022FEF7F4F82F
:103220004FF460400AAECDE90A0B012708F5806033
:1032300031460C97FDF7DAFF12200AA981E88108D0
:10324000404631460D97FDF7D1FF4FF4E6400AA9FD
:1032500081E88104404631460D97FDF7C7FF48F2EB
:1032600008000AA981E8810440463146CDF834A01F
:10327000FDF7BCFF4FF498500AA981E88108284661
:103280003146CDF834A0FDF7B1FF4FF440600AA9F4
:1032900081E88108284631460D97FDF7A7FF0020F9
:1032A000C1F23100CDE90B0728463146CDF8289010
:1032B000FDF79CFFE020CDE90A0B404631460C9714
:1032C000FDF794FF282001210022FEF723F9282092
:1032D000FEF70EF954F8040C002140F0010044F808
:1032E000040C54F8040C002200F001000A900A9823
:1032F0000B20FEF70FF90B20FEF7FAF840F24C30E6
:10330000A8F58431C2F2000044F61F63CDE904BB86
:10331000CDE90FBBCDE90DBB232280E80608C0E94B
:10332000033BC0F818B0FFF705F928B1EFF31080A0
:1033300072B600BFFEE700BF40F24C30C2F20000A0
:1033400004A9FEF79DFC28B1EFF3108072B600BF10
:10335000FEE700BF60200A9040F24C300024C2F229
:1033600000000AA90822CDE90B440E94FEF7E0FF05
:1033700020B1EFF3108072B6FEE700BF40F24C3090
:10338000C2F20000FEF77AFF40F20430C2F2000001
:103390004FF0804140F2E733CDE90444CDE90F44DA
:1033A000CDE90D44472280E81600C0E9033484616A
:1033B000FFF7C0F820B1EFF3108072B6FEE700BF50
:1033C00040F20430C2F2000004A9FEF759FC28B113
:1033D000EFF3108072B600BFFEE700BF60200A90D6
:1033E0000020CDE90B0004200E9040F20430C2F220
:1033F00000000AA90822FEF79BFF28B1EFF3108016
:1034000072B600BFFEE700BF40F20430C2F2000017
:103410000AA90C22FEF78CFF20B1EFF3108072B6E0
:10342000FEE700BF40F20430C2F20000FEF726FFC4
:1034300040F2BC20002108F50052C2F200004723F0
:1034400040F2E7370D91CDE90B11CDE90411C0E948
:103450000023C0E90217C0E904118161FEF750FCA6
:1034600020B1EFF3108072B6FEE700BF4FF480503A
:103470000A9040F2BC20C2F200000AA9FEF774FDD7
:1034800020B1EFF3108072B6FEE700BF40F2BC201F
:10349000C2F2000004A9FEF7F3FB18B1EFF31080AD
:1034A00072B6FEE740F294300021A8F58232C2F2F3
:1034B000000047234FF6FF770D91CDE90B11CDE9C1
:1034C0000411C0E90023C0E9021701618161FEF720
:1034D00017FC18B1EFF3108072B6FEE74FF480507E
:1034E0000A9040F29430C2F200000AA9FEF73CFDB7
:1034F00020B1EFF3108072B6FEE700BF40F29430C7
:10350000C2F2000004A9FEF7BBFB18B1EFF3108074
:1035100072B6FEE740F2780008F5C051C2F2000032
:1035200000254FF4807201244FF46023C0E9001598
:10353000082104730575C36182600161FDF712FA09
:1035400020B1EFF3108072B6FEE700BF07200C90A9
:1035500040F27800C2F200000AA9CDE90A54FDF752
:103560003FF918B1EFF3108072B6FEE701200A9020
:1035700040F278000224C2F200000AA90B94FDF781
:103580002FF918B1EFF3108072B6FEE740F2780021
:103590000A940324C2F200000AA90B94FDF720F953
:1035A00020B1EFF3108072B6FEE700BF40F2780062
:1035B0000A940424C2F200000AA90B94FDF710F942
:1035C00020B1EFF3108072B6FEE700BF40F2780042
:1035D0000A940524C2F200000AA90B94FDF700F931
:1035E00020B1EFF3108072B6FEE700BF40F2780022
:1035F0000A940624C2F200000AA90B94FDF7F0F821
:1036000020B1EFF3108072B6FEE700BF40F2780001
:103610000A940724C2F200000AA90B94FDF7E0F80F
:1036200020B1EFF3108072B6FEE700BF40F27805DC
:103630000820C2F200050B900AA928460A94FDF75B
:10364000CFF818B1EFF3108072B6FEE740F24C24C9
:10365000C2F2000440F2680305F13002C2F2000336
:103660002046294601F0B0FF40F2BC20C2F2000023
:10367000FEF728FC2046FFF7A1FCFBE7B0B50D469E
:1036800004461046052100F0C5F82868FFF76AFADD
:1036900030B120466FF045016FF0270202F0C8F804
:1036A0006868FFF75FFA20B120463221322202F02B
:1036B000BFF8A868FFF756FA002808BFB0BD20463B
:1036C0000021002202F0B4F84FF4FA60FDF740FC4C
:1036D00020460121012202F099F8C820FDF738FCAC
:1036E00020460021002202F091F8C820BDE8B04039
:1036F000FDF72EBCB0B50546016008680C461F21D9
:10370000816240F2C111C1621989A9815889E88199
:1037100018882882588868829888A8821068DB8870
:1037200068605068EB82A8600020A8612046FEF720
:10373000A3FFE9892046BDE8B040FEF79DBF000029
:10374000B0B5054600F108044FF60040C0F6010090
:1037500021460222FFF7C0F928894FF6BE01A0F6E4
:103760006110CFF6FF7188429CBF4FF4B860208093
:10377000B0BD000010B584B004464FF60000C0F69E
:10378000010069461022FFF7A7F9BDF80000BDF857
:10379000021000BA000C208708BABDF80410000C13
:1037A000608708BABDF80610000CA08708BABDF8FB
:1037B0000810000CE08708BABDF80A10000CA4F845
:1037C000400008BABDF80C10000CA4F8420008BA7A
:1037D000BDF80E10000CA4F8440008BA000CA4F8C0
:1037E000460004B010BD000010B50B68044603602D
:1037F00013884868E38160605088896820829088D7
:10380000A16060820020207506202077FDF702FE6F
:10381000A06110BD70B50629044605D100222275AD
:103820000026002514E000BF01200529207588BF6F
:1038300070BD45F62650C0F60000425C45F62C509F
:10384000C0F60000465C45F63250C0F60000455C0C
:103850002068E189FDF7D8FD6068218A3246FDF7CE
:10386000D3FDA068618A2A46BDE87040FDF7CCBD53
:103870002DE9F04F81B040F25417C2F20007044620
:1038800007F11800FFF76EF950B100200121C4E9DB
:103890000000A060206184F83A1084F8500029E00C
:1038A00020694DF2C041C0F20101884222D30020BC
:1038B00084F8500040F2EC00C2F200000C3000210D
:1038C000FFF70AFA07F160000021002201F0B0FFC3
:1038D00007F14800FFF746F920B994F839000028AD
:1038E00001F02E8440F20B10A4F8500001B0BDE8A6
:1038F000F08F00BF94F850005A2800F26983DFE887
:1039000010F05B00670367036703670367036703E0
:1039100067036703670367038C086703670367032D
:103920006703670367036703670367035D004F036C
:103930007D03670367036703670367036703670321
:10394000C302E902EF0267036703670367036703C4
:1039500067036703B103A5034F02670367036703A8
:103960006703670367036703E3026502510101030D
:103970002D03670367036703670367031104E3030A
:103980006100930217046703670367036703670314
:1039900067036703670367036703670367036703D7
:1039A00067036703670367036703670367036703C7
:1039B00067036703670339017CE700BF162000F047
:1039C0004ABB00BF40F2D010C2F2000000F1200557
:1039D0002846FFF7CDF8002800F0FA832846FFF7C5
:1039E000C7F8DF2800F31885C02801F2A983DFE8B3
:1039F00010F0390AB501F104B5015109A70B950A78
:103A0000F1049509A70BA70BA70B150AA70B5109E2
:103A1000A70B7309A70BA70BA70BA70BA70BA70B4C
:103A2000A70BF909A70BA70BA70B9509A70BA70BCA
:103A3000A70BB709A70BA70BA70BA70BA70BA70BE8
:103A4000A70BA70BA70BA70BA70BA70BA70BA70BE6
:103A5000A70B730AA70BA70BA70BA70BA70BA70B0B
:103A6000A70B7309A70BA70BA70BA70BA70BA70BFC
:103A7000A70B910BA70BA70BA70BA70BA70BA70BCC
:103A8000A70BA70BA70BA70BA70BA70BA70BA70BA6
:103A9000A70BA70BA70BA70BA70BA70BA70BA70B96
:103AA000A70BA70BA70BA70BA70BA70BA70BA70B86
:103AB000A70B530AA70BA70BA70BA70BA70BA70BCB
:103AC000A70BA70BA70BA70BA70BA70BA70BA70B66
:103AD000A70BB709A70BA70BA70BA70BA70BA70B48
:103AE000A70BA70BA70BA70BA70BA70BA70BA70B46
:103AF000A70BD909A70BA70BA70BA70BA70BA70B06
:103B0000A70BA70BA70BA70BA70BA70BA70BA70B25
:103B1000A70BA70BA70BA70BA70BA70BA70BA70B15
:103B2000A70BA70BA70BA70BA70BA70BA70BA70B05
:103B3000A70BA70BA70BA70BA70BA70BA70BA70BF5
:103B4000A70BA70BA70BA70BA70BA70BA70BA70BE5
:103B5000A70BA70BA70BA70BA70BA70BA70BA70BD5
:103B6000A70BA70BA70BA70BA70BA70BA70BA70BC5
:103B7000A70BD9096068632800F2EA8240F2D010EE
:103B8000C2F200002030FEF7F3FF10F0E70000F073
:103B90003F87072800F03A87042840F03E87FE2040
:103BA00000F037BF40F2D015C2F2000528460621CA
:103BB000FFF730FE20352846FEF7DAFF002800F038
:103BC0001F832846FEF7D4FFDF2800F32584C02892
:103BD00001F2B682DFE810F04609C200FE03C2001F
:103BE0005E08B40AA209FE03A208B40AB40AB40A21
:103BF0002209B40A5E08B40A8008B40AB40AB40AF6
:103C0000B40AB40AB40AB40A0609B40AB40AB40A73
:103C1000A208B40AB40AB40AC408B40AB40AB40ABA
:103C2000B40AB40AB40AB40AB40AB40AB40AB40AA4
:103C3000B40AB40AB40AB40A8009B40AB40AB40AC9
:103C4000B40AB40AB40AB40A8008B40AB40AB40ABA
:103C5000B40AB40AB40AB40A9E0AB40AB40AB40A8A
:103C6000B40AB40AB40AB40AB40AB40AB40AB40A64
:103C7000B40AB40AB40AB40AB40AB40AB40AB40A54
:103C8000B40AB40AB40AB40AB40AB40AB40AB40A44
:103C9000B40AB40AB40AB40A6009B40AB40AB40A89
:103CA000B40AB40AB40AB40AB40AB40AB40AB40A24
:103CB000B40AB40AB40AB40AC408B40AB40AB40A06
:103CC000B40AB40AB40AB40AB40AB40AB40AB40A04
:103CD000B40AB40AB40AB40AE608B40AB40AB40AC4
:103CE000B40AB40AB40AB40AB40AB40AB40AB40AE4
:103CF000B40AB40AB40AB40AB40AB40AB40AB40AD4
:103D0000B40AB40AB40AB40AB40AB40AB40AB40AC3
:103D1000B40AB40AB40AB40AB40AB40AB40AB40AB3
:103D2000B40AB40AB40AB40AB40AB40AB40AB40AA3
:103D3000B40AB40AB40AB40AB40AB40AB40AB40A93
:103D4000B40AB40AB40AB40AB40AB40AB40AB40A83
:103D5000B40AB40AB40AB40AE60800BF94F94F00E2
:103D600094F95450FCF7F3FA46F26663C3F6D6733F
:103D70004FF06632FCF746FAFCF720FB01466FF085
:103D80000200FEF7BBFF15F1030FC1F2D98101203C
:103D9000A4F85200062084F8540001B0BDE8F08F6A
:103DA00040F2D010C2F200002030FEF7E1FE3728CA
:103DB00000F3D681062800F0E081182800F0DD81AC
:103DC000302800F0DA8101F0BBB900BF2068652817
:103DD000C1F0B68107F1600528460021002201F0FC
:103DE00015FD94F94F00FCF7B2FA46F26663C3F68C
:103DF000D6734FF06632FCF705FAFCF7DFFA064699
:103E000040F2EC00C2F200000C300021FEF764FF2B
:103E100028463146324601F00BFD352084F850002B
:103E200001B0BDE8F08F00BF40F2D010C2F2000038
:103E30002030FEF79DFE40B2B0F1FF3F01F38081DC
:103E400094F94F00FCF783FA43F23333C3F6E3737C
:103E50004FF03332FCF7D6F9FCF7B0FA054640F2E2
:103E6000EC00C2F200000C300021FEF735FF07F134
:103E7000600029462A4601F0DBFC412084F850000E
:103E800001B0BDE8F08F00BF40F2D010C2F20000D8
:103E90002030FEF76DFE002841F0528140F2EC0028
:103EA000C2F200000C301921FEF716FF07F1600581
:103EB000284600210022002601F0A8FC94F94F209A
:103EC00028460021B9E000BF342084F8500001B03A
:103ED000BDE8F08F20685128C1F032812120BAE07E
:103EE00040F2D010C2F200002030FEF741FE3B2825
:103EF00000F33E81182800F040811C2800F03D812D
:103F000001F01EB940F2D010C2F200002030FEF7DE
:103F10002FFE000701F0148194F94F00FCF717FA07
:103F20000023C3F6E0730022FCF76CF9FCF746FAB5
:103F3000054640F2EC00C2F200000C300021FEF712
:103F4000CBFE07F1600029462A4601F071FC3720BC
:103F500084F8500001B0BDE8F08F00BF40F2D010EF
:103F6000C2F200002030FEF703FEA08C07F16005CE
:103F7000A06028460121012201F048FC28460021CA
:103F8000002201F055FC28466FF013016FF0130278
:103F900001F04EFC0B2084F8500001B0BDE8F08F1A
:103FA0002068632800F2FC8440F2D010C2F20000C6
:103FB00000F1200940F2EC00C2F2000007F16005B8
:103FC0004FF0010A00F10C084FF4807B52E200BF71
:103FD00040F2D010C2F200000621FFF71BFC07F1EF
:103FE000600420460121012201F010FC204600213E
:103FF000002201B0BDE8F04F01F01ABC40F2D01031
:10400000C2F2000000F120052846FEF7B1FDE028CD
:10401000C0F0BC8040F2EC00C2F200000C30122173
:10402000FEF75AFE07F1600528460021002200260F
:1040300001F0ECFB28460021372201F0F9FB266055
:10404000202084F8500001B0BDE8F08F206851288E
:10405000C1F076802B2084F850000020206001B051
:10406000BDE8F08F40F2D010C2F200002030FEF721
:104070007FFD002841F0648040F2EC00C2F20000B5
:104080000C306FF01801FEF727FE94F94F00FCF793
:104090005EF94CF6CD424CF6CC43CCF6CC42C3F69E
:1040A000EC73FCF7AFF8FCF789F9014607F1600003
:1040B0006FF0090201F0BCFB002020602A2084F888
:1040C000500001B0BDE8F08F20686528C1F038804D
:1040D00007F1600528460021002201F097FB94F9C2
:1040E0004F00FCF734F946F26663C3F6D6734FF01F
:1040F0006632FCF787F8FCF761F9064640F2EC00FF
:10410000C2F200000C300021FEF7E6FD28463146E1
:10411000324601F08DFB3F2084F8500001B0BDE82D
:10412000F08F00BF3E2084F8500001B0BDE8F08F52
:1041300040F2D010C2F200002030FEF719FDA08C32
:10414000A0600B2084F8500001B0BDE8F08F00BFE4
:104150000B2084F850000020E06001B0BDE8F08F33
:1041600038280AD0702808D0602806D000F0E8BFB0
:10417000E02802D03C2840F0E387A18C0B2084F893
:104180005000A16001B0BDE8F08F00BF00F0070053
:10419000072853D140F2EC00C2F200000C306FF05F
:1041A0001101FEF799FD07F1600528460021002264
:1041B000002601F02BFB28463721002201F038FBB6
:1041C00026602A2084F8500001B0BDE8F08F00BFBF
:1041D00094F94F00FCF7BBF80023C3F6E07300220C
:1041E0000025FCF70FF8FCF7E9F801460720FEF779
:1041F00085FD402084F85000656001B0BDE8F08F77
:1042000094F94F00FCF7A3F849F69A1249F699136E
:10421000C9F69912C3F6E173FBF7F4FFFCF7CEF889
:1042200001466FF00600FEF769FD362084F8500065
:104230000020606001B0BDE8F08F00BF2846FEF7A7
:1042400097FCC02800F26487DFE810F00C06C2007B
:10425000C400880724057A07A207C40068057A0706
:104260007A077A07E8057A0724057A0746057A0768
:104270007A077A077A077A077A077A07CC057A07E6
:104280007A077A0768057A077A077A078A057A072C
:104290007A077A077A077A077A077A077A077A0716
:1042A0007A077A077A077A077A077A0746067A073B
:1042B0007A077A077A077A077A077A0746057A072C
:1042C0007A077A077A077A077A077A0764077A07FC
:1042D0007A077A077A077A077A077A077A077A07D6
:1042E0007A077A077A077A077A077A077A077A07C6
:1042F0007A077A077A077A077A077A077A077A07B6
:104300007A077A077A077A077A077A0726067A07FA
:104310007A077A077A077A077A077A077A077A0795
:104320007A077A077A077A077A077A078A057A0777
:104330007A077A077A077A077A077A077A077A0775
:104340007A077A077A077A077A077A07AC057A0735
:104350007A077A077A077A077A077A077A077A0755
:104360007A077A077A077A077A077A077A077A0745
:104370007A077A077A077A077A077A077A077A0735
:104380007A077A077A077A077A077A077A077A0725
:104390007A077A077A077A077A077A077A077A0715
:1043A0007A077A077A077A077A077A077A077A0705
:1043B0007A077A077A077A077A077A077A077A07F5
:1043C0007A077A077A077A077A077A07BC0700BF65
:1043D000FFF7C4BC94F94F0094F95450FBF7B7FFB2
:1043E00046F26663C3F6D6734FF06632FBF70AFFF8
:1043F000FBF7E4FF01466FF00100FEF77FFC15F1CB
:10440000030FC0F29D860120A4F85200052084F815
:10441000540001B0BDE8F08FE02800F07B86E7286B
:1044200002D0FF2840F08C86FEF7D6FA002840F034
:10443000088300F085BE00BF28460021002201F05D
:10444000E5F96FF001000F21FEF758FC40466FF0D0
:104450000101FEF741FC28460021002201F0E8F9A5
:10446000A4F852A0052000BF84F8540020686428F6
:1044700080F0968228460021002201F0D9F92846D2
:104480000121012201F0C2F94846FEF771FBC02864
:1044900000F23281DFE810F094011E01C4001E0119
:1044A000FA00C200B401C400E400C200C200C200AD
:1044B000BE01C200FA00C2000C01C200C200C2006C
:1044C000C200C200C200C2007401C200C200C20029
:1044D000E400C200C200C2000401C200C200C20067
:1044E000C200C200C200C200C200C200C200C200BC
:1044F000C200C200C200C2008201C200C200C200EB
:10450000C200C200C200C2000C01C200C200C20050
:10451000C200C200C200C2003301C200C200C20019
:10452000C200C200C200C200C200C200C200C2007B
:10453000C200C200C200C200C200C200C200C2006B
:10454000C200C200C200C200C200C200C200C2005B
:10455000C200C200C200C200D201C200C200C2003A
:10456000C200C200C200C200C200C200C200C2003B
:10457000C200C200C200C2000401C200C200C200E8
:10458000C200C200C200C200C200C200C200C2001B
:10459000C200C200C200C2002801C200C200C200A4
:1045A000C200C200C200C200C200C200C200C200FB
:1045B000C200C200C200C200C200C200C200C200EB
:1045C000C200C200C200C200C200C200C200C200DB
:1045D000C200C200C200C200C200C200C200C200CB
:1045E000C200C200C200C200C200C200C200C200BB
:1045F000C200C200C200C200C200C200C200C200AB
:10460000C200C200C200C200C200C200C200C2009A
:10461000C200C200C200C200280100BF26E700BFDE
:1046200094F9540010F1040F40F3EF80E0686169E1
:1046300088427FF60BAFE1698842FFF4FDAE404649
:104640006FF00101FEF748FB28460121012201F02D
:10465000DDF828460021002201F0EAF8F6E600BF66
:1046600094F954B040460021FEF736FB284600215D
:10467000002201F0DDF81BF1030F4FF4807BA4BF93
:10468000A4F852B084F854A0F0E600BF94F95400A6
:1046900010F1040F4CDC40464FF0FF31D4E000BF76
:1046A00094F95400042857DB40460121CCE000BFB8
:1046B00094F9546040460021FEF70EFB2846002185
:1046C000002201F0B5F8032E3FF7D0AEA4F852B0A7
:1046D000FF20C9E694F9540010F1040F78DC40463D
:1046E0006FF00201B0E000BF94F954000428C0F25A
:1046F000B38040460321A7E0E0287FF4B7AE94F9E9
:104700005400042880F29E80E0686169884240F28B
:104710003981E169884280F0278128460021002202
:1047200001F074F802200F21FEF7E8FA2AE100BF39
:10473000E0686169884240F2EC80E169884280F07B
:10474000D98028460021002201F060F84FF0FF30A8
:104750000F21FEF7D3FADCE0E0686169884240F29D
:10476000F580E169884280F0E3802846002100223C
:1047700001F04CF801200F21FEF7C0FAE6E000BF7F
:1047800040460021FEF7A8FA28460021002201F049
:104790004FF8A4F852B0002066E600BF94F95460C8
:1047A00040460121FEF798FA28460021002201F038
:1047B0003FF8032E3FF75AAEA4F852B0FE2053E65E
:1047C00094F9540010F1050F5CDC40460F213BE0EA
:1047D000E0686169884205D920466FF00201002235
:1047E000FEF7E8FA40466FF00201FEF775FA284638
:1047F0000021002201F01CF8A4F852A0062033E6A4
:1048000094F9540010F1040F46DC40466FF00101AA
:104810001AE000BF94F9546040464FF0FF31FEF7B4
:104820005BFA28460021002201F002F816F1030F7E
:10483000FFF61CAEA4F852B0022015E694F954001D
:10484000042841DB40460221FEF746FA28460021B3
:10485000002200F0EDFF09E6E0686169884204D9B2
:10486000204603210022FEF7A5FA40460321FEF769
:1048700033FA28460021002200F0DAFFFA20A4F8DB
:1048800052A0F1E50528FFF6F1AD6FF00E00002112
:10489000FEF734FAEAE500BFE0686169884205D9AD
:1048A00020466FF001010022FEF784FA40466FF0C7
:1048B0000101FEF711FA28460021002200F0B8FF9E
:1048C000A4F852A00420CFE5E0686169884204D9C9
:1048D000204602210022FEF76DFA40460221FEF733
:1048E000FBF928460021002200F0A2FFA4F852A004
:1048F000FC20B9E540464FF0FF31FEF7EDF92846C0
:104900000121012200F082FF28460021002200F050
:104910008FFF40464FF0FF31FEF7DEF928460021B9
:10492000002200F085FFA4F852A003209CE500BF00
:1049300040460121FEF7D0F928460121012200F06E
:1049400065FF28460021002200F072FF4046012149
:10495000FEF7C2F928460021002200F069FFA4F802
:1049600052B0FD2080E500BF40460221FEF7B4F9B9
:1049700028460121012200F049FF2846002100229B
:1049800000F056FF40460221FEF7A6F92846002116
:10499000002200F04DFFA4F852A0FB2064E500BF08
:1049A00082280BD807F160006FF013016FF013023B
:1049B00001B0BDE8F04F00F03BBF00BF07F160055C
:1049C00028460021002200F021FF2846142114224D
:1049D00000F02EFFFEF700F8002840F0B183FEF74C
:1049E00015F8002840F0AC83FEF73AF8002840F0B4
:1049F000A783284600210022002500F007FF17208A
:104A000084F85000256001B0BDE8F08FFD2000E083
:104A1000002040B22D21FEF771F940F2D016C2F20B
:104A2000000606F120052846FEF7A2F800F08100F6
:104A300081280DD140F2D010C2F200000021FEF713
:104A4000E9FE152084F8500001B0BDE8F08F00BFEA
:104A50002846FEF78DF800F08100812810D140F241
:104A6000D010C2F200000021FEF7D4FEFDF7F8FFDF
:104A7000F0B1332084F8500001B0BDE8F08F00BFE2
:104A80002846FEF775F8F72804D82846FEF770F890
:104A9000EF28EBD940F2D010C2F200000221FEF75D
:104AA000B9FE3D2084F8500001B0BDE8F08F00BF92
:104AB00030460521FEF7AEFE2846FEF759F8E028FD
:104AC00000F23E83DFE810F03804D002F802D00292
:104AD00014033C03A204F802E2003C033C033C0341
:104AE0001C043C0314033C03E2003C033C033C0372
:104AF0003C033C033C033C03E2003C033C033C031B
:104B0000D6033C033C033C0354023C033C033C03FC
:104B10003C033C033C033C033C033C033C033C039D
:104B20003C033C033C033C03DA043C033C033C03EE
:104B30003C033C033C033C03BE043C033C033C03FA
:104B40003C033C033C033C0388023C033C033C0322
:104B50003C033C033C033C033C033C033C033C035D
:104B60003C033C033C033C0354023C033C033C0336
:104B70003C033C033C033C033C033C033C033C033D
:104B80003C033C033C033C0398033C033C033C03D1
:104B90003C033C033C033C033C033C033C033C031D
:104BA0003C033C033C033C0354023C033C033C03F6
:104BB0003C033C033C033C033C033C033C033C03FD
:104BC0003C033C033C033C03E0023C033C033C034A
:104BD0003C033C033C033C033C033C033C033C03DD
:104BE0003C033C033C033C033C033C033C033C03CD
:104BF0003C033C033C033C033C033C033C033C03BD
:104C00003C033C033C033C0388023C033C033C0361
:104C10003C033C033C033C033C033C033C033C039C
:104C20003C033C033C033C033C033C033C033C038C
:104C30003C033C033C033C033C033C033C033C037C
:104C40003C033C033C033C03E0023C033C033C03C9
:104C50003C033C033C033C033C033C033C033C035C
:104C60003C033C033C033C033C033C033C033C034C
:104C70003C033C033C033C033C033C033C033C033C
:104C80003C033C033C033C03880200BF94F94F10F3
:104C9000B7E000BF94F94F0094F95450FBF757FB6D
:104CA00046F26663C3F6D6734FF06632FBF7AAFA94
:104CB000FBF784FB01464FF0FF30FEF71FF815F1BC
:104CC000030FC0F23D820120A4F85200032084F8B3
:104CD000540001B0BDE8F08F94F94F0094F954509E
:104CE000FBF735FB46F26663C3F6D6734FF06632C8
:104CF000FBF788FAFBF762FB01460020FDF7FEFF99
:104D0000032D00F31D824FF48070A4F85200FF20A1
:104D100084F8540001B0BDE8F08F00BF94F94F0053
:104D200094F95450FBF713FB46F26663C3F6D6734F
:104D30004FF06632FBF766FAFBF740FB01460020B6
:104D4000FDF7DCFF15F1030FC0F2FA814FF480701C
:104D5000A4F85200012084F8540001B0BDE8F08F9F
:104D600094F94F0094F95450FBF7F1FA46F2666358
:104D7000C3F6D6734FF06632FBF744FAFBF71EFB1F
:104D800001460120FDF7BAFF032D00F3D9814FF44E
:104D90008070A4F85200FD2084F8540001B0BDE8F2
:104DA000F08F00BF94F94F0094F95450FBF7CFFAFD
:104DB00046F26663C3F6D6734FF06632FBF722FA0B
:104DC000FBF7FCFA01460320FDF798FF032D00F3E3
:104DD000B7810120A4F85200FA2084F8540001B0F1
:104DE000BDE8F08F94F94F00FBF7B1FA46F2666325
:104DF000C3F6D6734FF06632FBF704FAFBF7DEFA20
:104E0000014600200025FDF779FF4FF48070A4F8DB
:104E1000520084F8545001B0BDE8F08F94F94F006F
:104E200094F95450FBF793FA46F26663C3F6D673CF
:104E30004FF06632FBF7E6F9FBF7C0FA01464FF098
:104E4000FF30FDF75BFF15F1030FC0F279814FF4DE
:104E50008070A4F85200022084F8540001B0BDE82C
:104E6000F08F00BF94F9540010F1050F66DC94F93F
:104E70004F00FBF76CFA46F26663C3F6D6734FF049
:104E80006632FBF7BFF9FBF799FA01460F2001B034
:104E9000BDE8F04FFDF732BF94F94F0094F954503C
:104EA000FBF755FA46F26663C3F6D6734FF06632E7
:104EB000FBF7A8F9FBF782FA01460220FDF71EFF77
:104EC000032D00F33D810120A4F85200FC2084F85A
:104ED000540001B0BDE8F08F94F94F0094F954509C
:104EE000FBF735FA46F26663C3F6D6734FF06632C7
:104EF000FBF788F9FBF762FA01460120FDF7FEFE99
:104F0000032D00F31D814FF48070A4F85200FE20A1
:104F100084F8540001B0BDE8F08F00BF94F94F0051
:104F200094F95450FBF713FA15F1040F00F3848041
:104F300046F26663C3F6D673CCE000BF0528C0F224
:104F4000FF8094F94F00FBF702FA46F26663C3F65E
:104F5000D6734FF06632FBF755F9FBF72FFA01468F
:104F60006FF00E0001B0BDE8F04FFDF7C7BE00BF07
:104F700094F95400042880F24481E0686169884211
:104F800014D994F94F00FBF7E2F949F69A1249F661
:104F90009913C9F69912C3F6E973FBF733F9FBF7D6
:104FA0000DFA024620460121FDF704FF94F94F0057
:104FB000FBF7CDF949F69A1249F69913C9F69912F9
:104FC000C3F6E973FBF71EF9FBF7F8F90146012078
:104FD000FDF794FEDBE600BF94F95400042880F24C
:104FE0001081E0686169884210D994F94F00FBF79D
:104FF000AEF90023C3F6E0730022FBF703F9FBF7D9
:10500000DDF9024620460121FDF7D4FE94F94F0058
:10501000FBF79DF94FF2C3524CF28F23C5F628429D
:10502000C3F6E573FBF7EEF8FBF7C8F9014603207A
:10503000FDF764FE88E000BF46F26663C3F6E673E0
:105040004FF06632FBF7DEF8FBF7B8F901466FF078
:105050000100FDF753FE0120A4F85200042084F85B
:10506000540001B0BDE8F08F94F9540010F1040F22
:1050700000F3D28094F94F00FBF769F90023C3F6DF
:10508000E873002228E000BF94F954000428C0F21D
:105090000D8194F94F00FBF75AF90023C3F6E8732A
:1050A0000022FBF7AFF8FBF789F90146022001B0B7
:1050B000BDE8F04FFDF722BE94F9540010F1040F43
:1050C00000F3488194F94F00FBF741F946F266631B
:1050D000C3F6E6734FF06632FBF794F8FBF76EF910
:1050E00001466FF0010001B0BDE8F04FFDF706BECC
:1050F00094F9540010F1040F00F35A8194F94F0011
:10510000FBF725F90023C3F6E87300228EE100BF08
:10511000E02815D194F94F0094F95450FBF717F992
:1051200046F26663C3F6D6734FF06632FBF76AF851
:10513000FBF744F901460220FDF7E0FD032D03DDF6
:1051400001B0BDE8F08F00BF0120A4F85200FB20A1
:1051500084F8540001B0BDE8F08F00BF94F94F000F
:1051600094F95450FBF7F3F846F26663C3F6D6732E
:105170004FF06632FBF746F8FBF720F901466FF077
:105180000100FDF7BBFD15F1030FBEF600AED7E73A
:1051900094F94F0094F95450FBF7D9F846F266633E
:1051A000C3F6D6734FF06632FBF72CF8FBF706F91F
:1051B00001464FF0FF30FDF7A1FD15F1030FBFF6DB
:1051C0004AAFBDE794F94F0094F95450FBF7BFF88C
:1051D000042DC0F26B8146F26663C3F6E6734FF0AE
:1051E0006632FBF70FF8FBF7E9F80146032001B040
:1051F000BDE8F04FFDF782BD94F954000428C0F2D9
:10520000658194F94F00FBF7A2F846F26663C3F696
:10521000E6734FF066323EE1E0686169884211D979
:1052200094F94F00FBF793F80023C3F6E0730022D4
:10523000FAF7E8FFFBF7C2F8024620466FF00101DB
:10524000FDF7B8FD94F94F00FBF781F84CF6CD421D
:105250004CF6CC43CCF6CC42C3F6E473FAF7D2FF5B
:10526000FBF7ACF801466FF00400FDF747FDFEF7D1
:105270008EBD00BF94F94F0094F95450FBF767F8C6
:1052800015F1040F40F3E7804CF6CD424CF6CC43C9
:10529000CCF6CC42C3F6EC73FAF7B4FFFBF78EF80A
:1052A00001460020FDF72AFD50E500BFE068616976
:1052B000884210D994F94F00FBF749F80023C3F650
:1052C000E0730022FAF79EFFFBF778F802462046CB
:1052D0000221FDF76FFD94F94F00FBF738F84CF60B
:1052E000CD424CF6CC43CCF6CC42C3F6E473FAF78D
:1052F00089FFFBF763F801460520FDF7FFFC68E531
:1053000094F94F0094F95450FBF721F815F1040F6C
:1053100040F3BD804CF6CD424CF6CC43CCF6CC42AB
:10532000C3F6EC73FAF76EFFFBF748F8014601206D
:10533000FDF7E4FC8BE500BF94F9540010F1050F74
:1053400000F3EC800F20002101B0BDE8F04FFDF725
:10535000D5BC00BFE0686169884211D994F94F005B
:10536000FAF7F5FF0023C3F6E0730022FAF74AFFCD
:10537000FBF724F8024620466FF00101FDF71AFD05
:1053800094F94F00FAF7E3FF4FF2C3524CF28F2328
:10539000C5F62842C3F6E573FAF734FFFBF70EF8BB
:1053A00001466FF00300FDF7A9FCFFF72CB800BF22
:1053B000E0686169884215D994F94F00FAF7C7FF90
:1053C00049F69A1249F69913C9F69912C3F6E97388
:1053D000FAF718FFFAF7F2FF024620464FF0FF31C6
:1053E000FDF7E8FC94F94F00FAF7B1FF43F23333CD
:1053F000C3F6EB734FF03332FAF704FFFAF7DEFF30
:1054000001466FF00100FDF779FC5CE494F954006B
:1054100010F1040F00F38E8094F94F00FAF797FF14
:1054200046F26663C3F6E6734FF06632FAF7EAFEB9
:10543000FAF7C4FF01464FF0FF3001B0BDE8F04F6E
:10544000FDF75CBC94F94F0094F95450FAF77FFFD4
:10545000042DC0F2978049F69A1249F69913C9F6BD
:105460009912C3F6E973FAF7CDFEFAF7A7FF0146E2
:10547000002001B0BDE8F04FFDF740BC94F94F00AB
:1054800094F95450FAF763FF042DC0F28D80002385
:10549000C3F6E8730022FAF7B5FEFAF78FFF01466C
:1054A000012001B0BDE8F04FFDF728BC46F266636D
:1054B000C3F6D6734FF06632FAF7A4FEFAF77EFF12
:1054C00001460320FDF71AFC83E400BFE068616930
:1054D000884212D994F94F00FAF739FF46F2666311
:1054E000C3F6E6734FF06632FAF78CFEFAF766FF02
:1054F000024620460121FDF75DFC94F94F00FAF7C2
:1055000026FF0023C3F6E8730022FAF77BFEFAF7C2
:1055100055FF01460220FDF7F1FBD4E40528FFF614
:105520000FAE6FF00E00002101B0BDE8F04FFDF7A7
:10553000E5BB00BFE0686169884213D994F94F0068
:10554000FAF705FF46F26663C3F6E6734FF066327C
:10555000FAF758FEFAF732FF024620464FF0FF31C5
:10556000FDF728FC94F94F00FAF7F1FE0023C3F68B
:10557000E8730022FAF746FEFAF720FF01466FF0C3
:10558000020066E54CF6CD424CF6CC43CCF6CC425C
:10559000C3F6EC73FAF736FEFAF710FF0146012066
:1055A000FDF7ACFBFFF7AFBB43F23333C3F6EB734E
:1055B0004FF03332FAF726FEFAF700FF01460020DB
:1055C000FDF79CFB9FE400002DE9F04F81B01F68C0
:1055D0000446876538684727876240F2E737C76225
:1055E000586840F2EC08E065986840F6004620668E
:1055F000D868C2F20008C4F20106C4E91902E166E3
:10560000404631460822FDF753F940F2000A40F2C5
:10561000D019C2F2000AC2F200090AF11C01484680
:105620005246FEF7E1F8216E08F10C0B58460822AD
:1056300000F0DAF840F25417E16DC2F2000707F10A
:1056400060000AF108020AF12803FEF753F8626EBF
:10565000A6F580614FF4805508F118004FF400431F
:10566000009500F08DF908F138003146202200F055
:10567000D5F908F150003146402200F0CFF9384604
:105680003146802200F0CAF906F5806507F118005E
:1056900029464FF40042FDF7C1F807F130002946D2
:1056A0004FF48042FDF7BAF807F1480029464FF45D
:1056B0000052FDF7B3F8D4E91A2109F120050AF1E7
:1056C0004C032846FDF764F808F128000AF110029F
:1056D0003146FDF749FC002628462660268766638A
:1056E00084F83B60FDF744FA84F84C004FF42050F6
:1056F000A4F84D005846A4F85060FEF721F858462B
:105700000021FDF7E9FA462084F84F000520A08427
:105710004FF4FA604FF47A7140F29C4240F21A431F
:1057200084F83A60C4E90166C4E90366C4E9051077
:10573000C4E9072301B0BDE8F08F00002DE9F04176
:10574000069C984615460E4683B10746304603210F
:10575000FEF760F8384600F0DBF80021C4F2F011E3
:10576000FAF7DEFD002818BF012412E000F0D0F89F
:10577000074630460021FEF74DF80021C4F2F01133
:105780003846FAF7BFFD20B930460121FEF742F84E
:105790000024002D18BF012545EA080040EA042036
:1057A000BDE8F08170B50546FDF7C2F94FF6004639
:1057B000C0F601063046FDF77FF905F108043046D2
:1057C00021460222FDF7B6F9FDF784F928894FF644
:1057D000BE01A0F66110CFF6FF7188429CBF4FF466
:1057E000B860208070BD0000002383714FF4B8635F
:1057F00003810B68016082804720986244F61F6C29
:1058000008461146C3F82CC0FCF736BFB0B50546B4
:1058100014462A8A40680B4611461A46FBF7F4FDE7
:105820006868698A2246BDE8B040FBF7EDBD00001C
:105830002DE9F04104460D46002948BF4D42A38A98
:10584000A068C9431646CA0F1946FBF7DDFD374667
:10585000002E48BF7742A068E18AF243D20FFBF7DF
:10586000D3FD6426642DA8BF35462846642FB8BFF3
:105870003E46FAF763FD48F20008C4F2E0384146BC
:10588000FAF750FC0027C4F2C8273946FAF77CFC27
:1058900005463046FAF752FD4146FAF743FC3946D1
:1058A000FAF772FC06462846FAF76FFD0546208394
:1058B0003046FAF76AFD216860830968CD630864A1
:1058C000BDE8F08110B50446007A022812D0012804
:1058D00018BF10BD20686189FBF790FD01280ED12B
:1058E0006068002201684A6202212172BDE810400E
:1058F000FCF7B4BA20686189FBF780FD10B1002085
:10590000207210BD6068FCF715FB0320207210BDEB
:1059100070B50446007A40F200450328C2F2000543
:1059200018D058BB2068A1890022FBF76DFD01202B
:105930000126FBF70DFB2068A1890122FBF764FD1E
:105940000120FBF705FB2068A1890022FBF75CFD25
:1059500013E000BF60680068406AFAF709FD4CF286
:105960009C4246F67203CBF22002C3F69173FAF71B
:1059700049FCFAF742FD002628602672286870BDAF
:10598000DDF800C0C0E9001200214381A0F80CC07E
:1059900001727047002908BF70472DE9F0410C469D
:1059A000054601264FF48078002706E0A1F80C8018
:1059B0004A70013C05F104052CD029680869898AE0
:1059C000FBF71CFD29688A78904205D08870CE705C
:1059D000FBF720FD29684860C87868B1FBF71AFD1D
:1059E00029684A68801A0F2806D38A78CF700A700F
:1059F00048788242DDD003E00A7848788242D8D0E5
:105A0000002AD3D18E81FBF705FD29680A788860CA
:105A1000CEE700BFBDE8F0417047000010B5044676
:105A20000161828208461146FBF7E8FC607310BDF5
:105A3000D0E90012036901310132C0E9001290F887
:105A400052105A1C026159B1012911D1C168426931
:105A500000239142836094BFA2F1C80101390CE098
:105A6000816801318160828C914205D806E000BFD7
:105A70008168828C914201D98169C16080B540F210
:105A8000D010C2F200002030FDF772F8014640F25B
:105A9000EC00C2F200002830BDE88040FDF7C0B93C
:105AA000F0B50589078D05833D44B0F848704689F7
:105AB00007EB55050587458DB0F84A70354407EB6F
:105AC000550584894587858D4683B0F84C6084836D
:105AD0002C4406EB5404C2898487C48DB0F84E5020
