:020000040800F2
:1000000008080020010100086D2700086527000886
:1000100069270008F10600088D270008000000008D
:10002000000000000000000000000000752700082C
:100030000107000800000000712700087927000868
:100040001B0100081B0100081B0100081B01000820
:100050001B0100081B0100081B0100081B01000810
:100060001B0100081B0100081B010008F506000821
:100070001B0100081B0100081B0100081B010008F0
:100080001B0100081B0100081B0100081B010008E0
:100090001B0100081B0100081B0100081B010008D0
:1000A0001B010008812700081B0100081B01000834
:1000B0001B0100081B0100081B0100081B010008B0
:1000C0001B0100081B0100081B0100081B010008A0
:1000D0001B0100081B0100081B0100081B01000890
:1000E000050700081B0100081B010008DFF80CD001
:1000F00000F044FA004800473131000808080020A9
:100100000648804706480047FEE7FEE7FEE7FEE7B1
:10011000FEE7FEE7FEE7FEE7FEE7FEE77D270008D5
:10012000ED00000880EA010210B502F00043400033
:1001300022D04A001FD0010E01EB1261C0F356001D
:10014000C2F3560240F4000042F40002A0FB022079
:1001500000047F39140400D0401C50EA124001D43E
:100160004000491EC2B20C0604EBD010401C4008EF
:10017000802A02D003E0002010BD20F001000029F9
:1001800000DA0020184310BD30B480EA010202F00A
:10019000004530F0004221F0004013D090B1C30D73
:1001A000D40DC2F31601C0F31600E41A41F40001A5
:1001B00040F400027D34914201D3641C00E0490008
:1001C000002C02DA30BC002070474FF400000023FE
:1001D000914201D3891A034340084FEA4101F7D104
:1001E00051B1914202D14FF0004105E002D24FF0EF
:1001F000010101E06FF0010103EBC450284430BC61
:1002000000F027B92DE9FE4F81EA030404F0004411
:1002100021F0004100944FF0000B23F0004350EA1E
:1002200001045ED052EA03045BD0C3F30A54C1F365
:100230000A552C44A4F2F3340194A0FB0254C1F3F8
:10024000130141F48011C3F3130343F4801301FB42
:10025000024400FB034E840A970A44EA815447EAA9
:100260008357A4FB076802958D0A05FB07854FEAB3
:10027000932C04FB0C542705029D4FEA065847EACD
:100280001637B5EB08056EEB070C870E920E47EAA2
:10029000811742EA8312A7FB0201B6EB0B0164EB64
:1002A00000042B0D43EA0C335E1844EB1C50DA4675
:1002B0005146E7FB0201C5F313044FEA0B3343EA4F
:1002C00014534FEA0432019C43EA0603A4F10C04E0
:1002D0000294009CCDE900B400F001F903B0BDE840
:1002E000F08F00200146F9E7002801DBC0F1004053
:1002F000002901DBC1F10041814201D80120704792
:1003000000207047002801DBC0F10040002901DB1C
:10031000C1F10041814201D30120704700207047A4
:10032000002801DBC0F10040002901DBC1F10041E0
:10033000814201D90120704700207047C10F80EA37
:10034000E0700844CA079623002100F08BB80EB570
:10035000C10F80EAE0700844CA07002140F233432D
:100360008DE80E000A460B4600F0B9F803B000BD58
:100370000EB540F2334102910021CDE900110A4649
:100380000B4600F0ACF803B000BD00F0004220F0D6
:100390000040C10DC0F3160040F400007F2901DACF
:1003A00000207047962903DCC1F19601C84001E0A6
:1003B00096398840002AF4D04042704770B5C1F3A6
:1003C0000A5201F000450024C1F3130140F2FF334B
:1003D00041F480119A4201DA002070BD40F23343AB
:1003E0009A42A2F2334203DC524200F022F800E0CB
:1003F00090402C43F1D0404270BD01F0004330B436
:1004000021F0004150EA010206D00A0DA2F5607207
:10041000C1F31301002A02DC30BC00207047440FF6
:1004200044EAC104C100E01830BC00EBC25000F047
:1004300010B8202A04DB203A21FA02F0002170478C
:1004400021FA02F3D040C2F120029140084319463C
:1004500070470029A8BF7047401C490008BF20F022
:100460000100704710B4B0FA80FC00FA0CF050EABA
:10047000010404BF10BC704749B1CCF1200421FA3B
:1004800004F411FA0CF118BF012121430843A3EB36
:100490000C01CB1D4FEA00614FEA102042BF002043
:1004A00010BC704700EBC35010440029A4BF10BC1F
:1004B0007047401C490008BF20F0010010BC704785
:1004C00010B5141E73F1000408DA401C41F100015C
:1004D00092185B411A4301D120F0010010BD2DE9B3
:1004E000F04D92469B4611B1B1FA81F202E0B0FAAA
:1004F00080F22032904600F059F804460F4640EA58
:100500000A0041EA0B0153465A46084313D01146EC
:1005100053EA010019D0C8F140025046FFF789FFA5
:1005200005460E4650465946424600F03FF80843FD
:1005300005D0012004E020463946BDE8F08D0020BA
:10054000054346EAE0762C4337430A986305E40AFC
:10055000A0EB08000022FD0A44EA47540A3002D505
:1005600000200146E9E7010510196941DDE9084568
:1005700000196941BDE8F04DA2E700001CB509482B
:100580000090094801900546009C06E0E06840F0B4
:10059000010394E8070098471034AC42F6D3FFF704
:1005A000A9FD00005C6000087C600008202A04DBD4
:1005B000203A00FA02F1002070479140C2F1200376
:1005C00020FA03F319439040704700000146406A47
:1005D000826A12F0500F03D0006A026B084610477F
:1005E0000168826A42F400728262896801F46021C3
:1005F000B1F5602F01D1017B11B100F0ADB900BFA1
:10060000816A21F480718162816AC90448BF00F067
:10061000A3B9816A41F00101816200F09DB9000037
:10062000406A816A41F040018162C16A41F004017F
:10063000C16200F095B90000406A00F08FB9000077
:10064000B0B582B004460020019021688A68D207C4
:100650004BD1886840F00100886040F26400C2F22B
:10066000000000684DF68361C4F21B31A0FB01015C
:10067000880C01900198A0B101980138019001986F
:1006800078B1019801380190019850B10198013872
:100690000190019828B10198013801900198002833
:1006A000EAD100F0B7FE21688968C9071CD1054668
:1006B00003E000BF8068C00716D100F0ABFE411B0D
:1006C00020680329F6D38168C907F3D1A06A40F0F6
:1006D0001000A062E06A40F00100E062002084F8AF
:1006E0002400012002B0B0BD002002B0B0BD000067
:1006F000FEE7000040F2A800C2F2000000F0C6BA17
:10070000704700004FF4004000F064BDEFF310802C
:1007100072B600BFFEE7000070B542F20C06044658
:10072000C4F2020600F076FE3168C9071CD13068B9
:10073000800644BF202030603068C00607D430698E
:10074000C00704D1306840075CBF002070BD30682E
:10075000C00640F2E030C2F2000021D4002132682D
:10076000520725D42AE000BFC4B10546601C10D151
:100770003068C007DBD03068C0071CBF30685FEA54
:10078000C070D4D03068C007F2D1D0E73068C0075D
:10079000CDD000F03FFE401BA042F7D9032070BD32
:1007A000C16941F00201C16110213268520705D5CB
:1007B000C26941F0040142F00102C2613269D2070C
:1007C00002D10120316070BDC26942F00402C261F1
:1007D000306920F0010030610120316070BD0000FF
:1007E00010B581B00022009290F82420012A03D194
:1007F0000221084601B010BD4B680122062B80F88B
:10080000242033D8D0F800C003EB83035A1F1F23E2
:10081000DCF834E003FA02F40B682EEA040403FA6D
:1008200002F22243CCF83420092B03EB430249D9CE
:10083000DCF80CE01E3A0724896894402EEA040490
:10084000914023F001022143102ACCF80C1043D12F
:1008500042F20841C4F20101A1F10802944543D0DB
:10086000816A41F020018162012136E0D0F800C0A8
:100870000C2B03EB830213D8233A1F23DCF830E060
:1008800003FA02F40B682EEA040403FA02F222438C
:10089000CCF83020092B03EB4302C9D812E000BF8B
:1008A000413A1F23DCF82CE003FA02F40B682EEA2D
:1008B000040403FA02F22243CCF82C20092B03EBA8
:1008C0004302B5D8DCF81030072489689440A3436C
:1008D00091401943CCF810100021002280F8242008
:1008E000084601B010BD00BF0A681202F4D40A68BD
:1008F000102B42F400020A60EED140F26401C2F211
:10090000000109684DF68362C4F21B32A1FB02129A
:10091000910C01EB81014900009100990029DBD085
:1009200000990139009100990029D5D00099013929
:10093000009100990029CFD00099013900910099C8
:100940000029C9D0009901390091009900294FF080
:100950000001E5D1C1E700007047000070470000CA
:1009600070470000002804BF01207047B0B504465E
:10097000806A28B121688868C0070CD115E000BFE3
:100980000020E06284F82400204600F097F82168F7
:100990008868C00709D0886820F00100886000F0EE
:1009A00039FD21688A68D20726D1A06AC0063AD4E8
:1009B000A06A41F2021290430230A062E069D4E9D9
:1009C000013240EA030C531EB3FA83F35D09134668
:1009D000B2F5807F18BF2B02207D257B01284CEAD1
:1009E00045002CD135B3A56A45F02005A562E56A1E
:1009F00045F00105E56222E0054602E08868C0078F
:100A0000D3D000F007FD401B21680328F6D3886887
:100A1000C007F3D0A06A40F01000A062E06A40F086
:100A20000100E062A06AA06A40F01000A06201200C
:100A3000B0BD00BFA56903EB4533A3F5C0534D68B6
:100A4000B2F5807F25F4694543EA05034B608B6866
:100A50004FF2FD75CFF6E17503EA050343EA0003A3
:100A60008B6001D0012A07D122690023CFF6F073F1
:100A700003EB025201E000BF0022CB6A23F47003B3
:100A80001A43CA62896840F6FE62CFF61F721140AF
:100A9000814207D10020E062A16A012262F30101D4
:100AA000A162B0BDA06A40F0100020F00200A06278
:100AB000E06A40F00100E0620120B0BD70B586B090
:100AC000044640F60000C4F20100216800F5E0523F
:100AD000002691420596CDE90366029602D006B043
:100AE00070BD00BF41F21801C4F202010A6842F46D
:100AF00000720A600A6802F400720192019A0A68A0
:100B000042F004020A60096801F0040101910199B0
:100B1000FF2102910321039102A900F067FB40F23B
:100B2000A8050820C2F20005C4F202004FF480724A
:100B3000C5E9000605F1100080214FF480634FF0F5
:100B4000200C4FF4805E80E80C502846C5E9026115
:100B500000F06CF9002818BFFFF7D8FD25626C6221
:100B600006B070BDF0B581B0036842F60006C4F26D
:100B70000106B34205D042F20046C4F20106B34278
:100B80000AD142F20443C4F201031B6813F4702F2C
:100B900002D0012001B0F0BD90F82430012B03D128
:100BA000022001B0F0BD00BF0D460121174680F8BC
:100BB00024100646FFF744FD30B1002086F82400DB
:100BC000012001B0F0BD00BF42F204403168B36AB9
:100BD000C4F20100324640F60176B34300F57F7659
:100BE00003F58073B142936244D0906A20F4801080
:100BF00090624868400504D5906A012363F30D3084
:100C00009062936A0020DB044FF0000344BFD36A74
:100C100023F00603D36282F82400106A40F2CD5319
:100C200040F23966C0F60003C0F6000640F22164C7
:100C3000C0F60004C0E90A366FF0020304630B60DB
:100C40008B68144643F480738B604C312A463B46D4
:100C500000F02EF92068816801F460228168B2F505
:100C6000602F0CBF41F4A00141F48011816000208D
:100C700001B0F0BD036813F4702FB6D0936A43F44B
:100C80008013936200684005B6D4BAE710B5D0E986
:100C90000FCE0168DCF800300A6823FA0EF35C0717
:100CA0002AD512F0040427D00A68920603D40A68F1
:100CB00022F004020A602F22C4F20202914240F2A2
:100CC0000402C4F202025BDD3023C4F20203994243
:100CD00072D04423C4F20203994273D05823C4F261
:100CE0000203994240F07A804FF480231360C16A76
:100CF000002940F098806FE09C0727D512F002048D
:100D000024D00A68920606D40A6822F00A020A6011
:100D1000012280F821202F22C4F20202914240F2E7
:100D20000402C4F202023BDD3023C4F20203994202
:100D300060D04423C4F2020399425FD05823C4F226
:100D40000203994260D14FF4003365E01B0743D59D
:100D500012F0080208BF10BD0A6822F00E020A60F5
:100D6000012101FA0EF2CCF80420816380F82110F1
:100D7000016B0022002980F8202054D12CE000BF14
:100D80000823C4F20203994222D01C23C4F20203B6
:100D9000994223D140231360C16A002943D11BE04B
:100DA0000823C4F2020399422CD01C23C4F202038C
:100DB000994229D120232FE04FF480631360C16A48
:100DC00089BB09E04FF480431360C16A59BB03E05B
:100DD00004231360C16A31BB10BD00BF02F1680477
:100DE0004FF08063A14208BF4FF480031360C16AD3
:100DF000C9B9F1E74FF400730EE000BF4FF40053A0
:100E00000AE000BF022307E002F168044FF000731C
:100E1000A14208BF4FF400131360816A0022002929
:100E200080F82020D8D0BDE81040084701460028AF
:100E30004FF0010008BF70472DE9F043D1F800C022
:100E40004FF6F873CBF6FD734CF6CD426344CCF607
:100E5000CC42A3FB02236FF0030202EA93020023B9
:100E6000C4F2020301F10C08C1E90F320222D1E9F8
:100E7000019E98E8F00181F82120DCF8002043F67B
:100E8000F0739A4342EA090242EA0E0222432A43DD
:100E900032433A4342EA0802CCF8002000228A6337
:100EA00081F8210081F820200020BDE8F043704740
:100EB00090F820C0BCF1010F04BF02207047F0B5CC
:100EC0004FF0010E80F820E090F821C0BCF1010F36
:100ED00026D14FF0020C80F821C04FF0000CC0F872
:100EE00038C0D0E900C4C56AC66BDCF80070102CAD
:100EF00027F00107CCF80070006C0EFA00F070606B
:100F00000846CCF8043004BF10460A46CCF8080066
:100F1000CCF80C20DCF8000045B140F00E000DE0EC
:100F2000002180F820100220F0BD00BF20F0040056
:100F3000CCF80000DCF8000040F00A00CCF800001B
:100F4000DCF8000040F00100CCF800000020F0BD0B
:100F5000B0B5044600F05EFA054640F25C00C2F20D
:100F600000000078611C18BF044400BF00F052FA72
:100F7000401BA042FAD3B0BD2DE9F04381B040F24E
:100F8000E035C2F200052A7E012A03D1022001B019
:100F9000BDE8F08304460120266828764CF25030E4
:100FA0008846FFF7B9FB022E1CD100284ED1002045
:100FB00042F21004E861C4F20204206840F0040028
:100FC0002060206840F0400020604CF25030FFF775
:100FD000A3FB216821F0040121600021297601B0E2
:100FE000BDE8F08390BB4FF0FF30C8F80000D4E9B3
:100FF0000270414607EB8020874227D242F210065A
:10100000C4F202064FF00009C5F81C90306840F0A9
:10101000020030607760306840F0400030604CF291
:101020005030FFF779FB316821F00201316098B947
:10103000D4E9020107F5806700EB81208742E3D302
:1010400000200021297601B0BDE8F08301200021B5
:10105000297601B0BDE8F083C8F800700021297638
:1010600001B0BDE8F083000042F21001C4F20201B9
:10107000086840F0800200200A6070472DE9F043C4
:1010800081B040F2E037C2F2000716463A7E012AEC
:1010900004D1022001B0BDE8F08300BF0546012065
:1010A00038764CF250300C469846FFF735FB28B1A5
:1010B0000021397601B0BDE8F08300BF42F210098B
:1010C0000020C4F20209F861D9F8000040F00100E4
:1010D000C9F800004CF250302680FFF71DFBD9F80C
:1010E0000010002821F00101C9F8001018BF0046C7
:1010F000DED1012DDCD00020F861D9F80000310CE0
:1011000040F00100C9F800004CF250306180FFF758
:1011100003FBD9F80010002821F00101C9F80010E4
:10112000C6D1E81E10F1030F4FF00000C0D8F861DF
:10113000D9F8000040F00100C9F800004CF250302E
:10114000A4F80480FFF7E8FAD9F80010002821F08D
:101150000101C9F80010ABD10020F861D9F80000F6
:101160004FEA184140F00100C9F800004CF250303D
:10117000E180FFF7D1FAD9F80010002821F0010131
:10118000C9F8001018BF00460021397601B0BDE84B
:10119000F083000042F20400C4F20200C1680906B4
:1011A0005CBF0020704740F22311C4F26751016018
:1011B00048F6AB11CCF6EF510160C068C0B2C0096F
:1011C0007047000040F2EC00C2F20000183004F05A
:1011D000E1BC000040F21441C4F201010A6802427D
:1011E00014BF08607047FFF7EDBF00002DE9F04F16
:1011F00082B00E68002E00F0FD8041F20042C4F281
:101200000102042340F2004E904208BF03234FF630
:10121000FF7CC4F2010E009300240123C1F2100CE4
:101220004FF0000A4FF000094BE000BF41F200020E
:10123000C4F20102009F904208BF022704F00C0391
:101240000F229A402BEA020207FA03F34FEA9A05AB
:101250001A4346F825204E6840F20C45F202DEF8AB
:10126000082054BF22EA080242EA0802C4F201053B
:10127000CEF808202A68B30254BF22EA080242EAE4
:1012800008022A60B303DEF8042054BF22EA0802F1
:1012900042EA0802F303CEF80420DEF800204FF003
:1012A000010354BF22EA080242EA0802CEF80020F5
:1012B0000E680AF1010A36FA0AF204F1040400F099
:1012C000998003FA0AFB16EA0B08F1D04E686645CE
:1012D00012DC122E56D8DFE806F0350B4D49555575
:1012E000555555555555555555555545510000BF02
:1012F000D1F80C9046E000BF4FF6FF72C1F2210218
:1013000096420FDC0022C1F2110296421AD000224E
:10131000C1F21202964215D00022C1F22102964279
:1013200010D02FE00022C1F2220296420AD0002201
:10133000C1F23102964205D00022C1F23202964239
:1013400020D100BF8A684AB1012A14BFC0F814B086
:10135000C0F810B04FF0080914E000BF4FF00409C6
:1013600010E000BFCA6802F104090BE04FF0000969
:1013700008E000BFCA6802F1080903E0CA6802F188
:101380000C0900BF02462646B8F5807F24BF043210
:10139000203E17680F25B54027EA050509FA06F62D
:1013A00035431560CA79D2067FF582AF41F2180342
:1013B000C4F202031A68AEF57E7642F001021A60AA
:1013C0001A6802F001020192019A2AF0030256F80B
:1013D00002B040F60002C4F20102904208D040F68A
:1013E0000042C4F2010290427FF420AF012725E7BA
:1013F000002723E702B0BDE8F08F000080680840B6
:1014000018BF012070470000002A08BF09040161CD
:101410007047000040F20440C2F2000000687047CC
:1014200040F25C0040F20441C2F20000C2F200014E
:1014300000780A68104408607047000080B542F2E6
:101440000000C4F20200016841F0100101600320B5
:1014500000F08CF8002000F005F800F027F80020DC
:1014600080BD000070B540F25C06C2F2000640F29A
:1014700064013278C2F200014FF47A730968B3FB59
:10148000F2F20446B1FBF2F1084600F0DFFB0F2C4C
:101490004FF0010508D838B94FF0FF30214600223F
:1014A000002500F037F87460284670BD82B041F224
:1014B0001800C4F202000168022241F0010101603B
:1014C000016801F0010101910199416841F08051E9
:1014D0004160406800F08050009000980420C4F201
:1014E0000100016862F31A61016002B070470000F8
:1014F000002848BF704700F01F01012202FA01F1E5
:101500001C2202EAD0004EF20012CEF200028150FC
:101510007047000010B54EF60C5CCEF2000CDCF803
:101520000030C3F3022E8EF00704042C28BF0424DD
:10153000BEF103034FF0FF3E0EFA04F438BF002360
:10154000A14399400EFA03F39A43114300F00F02AE
:1015500000F160430901043A03F564436244002842
:1015600048BF02F10C03197010BD00004EF60C517B
:10157000CEF200010A684FF6FF031A4060F30A2218
:1015800042F0806040F0FD70086070472DE9F04146
:1015900082B00446007841F21C06C007C4F202067D
:1015A0004AD030685FEAC00808D4306840F0805004
:1015B0003060306800F080500190019847F20007D9
:1015C000C4F200073868C00512D4386840F480704F
:1015D0003860FFF71FFF05463868C00508D4FFF7DD
:1015E00019FF401B6428F7D9032002B0BDE8F08141
:1015F000706810F4407012D0616801F44071884244
:101600000DD0706840F24042C4F24222012320F41F
:10161000407113600023C0071360716026D17068A9
:10162000616820F440700843B8F1000F706003D483
:10163000306820F0805030602068810707D556F868
:10164000181CA26821F44041114346F8181CC0063A
:1016500007D556F8180CE16820F48000084346F8D6
:10166000180C002002B0BDE8F08100BFFFF7D2FEE9
:10167000054641F2883700BF70688007CFD4FFF776
:10168000C9FE401BB8424FF00300F5D9EAE700005D
:10169000002804BF012070472DE9F04381B042F2D9
:1016A0000008C4F202080446D8F800000D4600F015
:1016B000070088420CD2D8F8000020F00700284329
:1016C000C8F80000D8F8000000F00700A8426CD16C
:1016D000206841F204098107C4F2020917D54107C5
:1016E00005D5D9F8001041F4E061C9F800100107F0
:1016F00005D5D9F8001041F46051C9F80010D9F8A7
:101700000010A26821F0F0011143C9F80010C007D1
:1017100042D1D8F8000000F00700A8420CD9D8F850
:10172000000020F007002843C8F80000D8F80000A7
:1017300000F00700A84238D12068410707D5D9F842
:101740000010E26821F4E0611143C9F800100007BD
:1017500008D5D9F80000216920F4605040EAC100A2
:10176000C9F80000D9F8002002F00C00082841F266
:101770000020C0F27A004DD146F24C03C2F38341FF
:10178000C0F60003595CD20338D440F60010C0F212
:101790003D0048433EE000BF606859F8041C022841
:1017A00008D0012826D1890306D4012001B0BDE864
:1017B000F08300BF8901F8D5D9F8001021F00301AA
:1017C0000843C9F80000FFF725FE064641F28837B6
:1017D000D9F80000616800F00C00B0EB810F98D0E0
:1017E000FFF718FE801BB842F2D9032001B0BDE814
:1017F000F08300BF8907D8D5DEE700BFD9F8002005
:1018000046F21803C2F34042C0F600039A5C484314
:10181000B0FBF2F0D9F8001046F20802C1F3031150
:10182000C0F60002515C40F2640220FA01F140F27D
:101830006000C2F200000068C2F200021160FFF70F
:1018400011FE002001B0BDE8F0830000002804BFB5
:10185000012070472DE9F04182B00446007841F242
:101860000006C007C4F202060CD0706800F00C003D
:10187000042840F081803068800303D56068002828
:1018800000F04681207880071BD5706810F00C0F9F
:1018900009D0706800F00C00082840F0878070685C
:1018A000C00300F183803068800703D520690128D8
:1018B00040F02E813068616920F0F80040EAC100F4
:1018C00030602078000713D4207840072CD4E569D5
:1018D000002D00F01881706800F00C00082840F01E
:1018E000A780012D40F00481012002B0BDE8F08105
:1018F000A069002800F084800020C4F24220012169
:10190000C0F88014FFF786FD054600BF706A8007A7
:1019100000F1B280FFF77EFD401B0228F6D90320BC
:1019200002B0BDE8F08100BFF0695FEAC00808D4EA
:10193000F06940F08050F061F06900F08050009054
:10194000009847F20007C4F200073868C00549D480
:10195000386840F480703860FFF75CFD054600BFD2
:101960003868C0053ED4FFF755FD401B6428F7D901
:10197000032002B0BDE8F081706800F00C00082878
:1019800003D17068C0033FF576AF61683068002905
:1019900000F00C81B1F5A02F00F00081B1F5803F7F
:1019A00040F01A8140F480301CE100BF206900281B
:1019B00040F20000C4F2422000F088800121016062
:1019C000FFF728FD054600BF306880073FF572AF7E
:1019D000FFF720FD401B0228F6D9032002B0BDE826
:1019E000F08100BFE168306A002900F09D80052980
:1019F00000F09280012940F0AF8040F00100B1E09A
:101A00000020C4F242200021C0F88014FFF702FD3C
:101A1000054600BF706A80077FF556AFFFF7FAFCF6
:101A2000401B0228F6D9032002B0BDE8F08100BFB8
:101A30000027C4F2422700203866FFF7EBFC022D96
:101A400005460DD13068800140F1DE80FFF7E2FCF1
:101A5000401B02284FF00300F4D902B0BDE8F0812A
:101A6000306880014FD5FFF7D5FC401B02284FF0AE
:101A70000300F5D9F1E700BF40F26400C2F20000B4
:101A8000006844F6D351C1F26201A0FB0101480A8B
:101A9000019000BF00BF0198411E002801913FF452
:101AA00013AF00BF0198411E002801913FF40CAF15
:101AB00000BF0198411E002801913FF405AF00BF0F
:101AC0000198411E00280191E4D1FDE6002101604A
:101AD000FFF7A0FC054600BF306880077FF5F1AE38
:101AE000FFF798FC401B02284FF00300F4D9B4E73D
:101AF0007068216A00F480328A4209D1616A00F478
:101B00007010884204D1002002B0BDE8F08100BF0F
:101B1000012002B0BDE8F08140F004003062306A7C
:101B200040F001001EE000BF20F001003062306A8A
:101B300020F004003062FFF76DFC054641F2883763
:101B4000306A800720D5FFF765FC401BB8424FF094
:101B50000300F5D981E700BF20F001003062306A50
:101B600020F004003062FFF755FC054641F288374B
:101B7000306A800708D4FFF74DFC401BB842F7D904
:101B8000032002B0BDE8F081B8F1000F3FF59FAE31
:101B9000F06920F08050F06199E600BF40F48020A9
:101BA0003060306840F480301CE000BF20F48030AA
:101BB0003060306820F480203060FFF72BFC054651
:101BC000306880037FF55EAEFFF724FC401B64287D
:101BD0004FF00300F4D940E720F4803030603068E3
:101BE00020F480203060FFF715FC05463068800344
:101BF0003FF548AEFFF70EFC401B6428F6D90320E2
:101C000002B0BDE8F08100BF206AB0F5803F05D189
:101C10007168A26821F40031114371607168626AD1
:101C200021F4741111430843706001203866FFF7F6
:101C3000F1FB0446306880013FF565AFFFF7EAFB32
:101C4000001B02284FF00300F4D906E7411E0020D4
:101C5000B0EB116F1CBF012070474EF21002CEF2A4
:101C6000000251604EF62351CEF20001F0230B70BA
:101C700007219060116070477047000070470000B6
:101C800090F83C20012A4FF0020236D010B580F8BF
:101C90003D200268D2F804E0D2F808C00C682EF0AB
:101CA0007003234340F2FF74C4F20004A242536065
:101CB0000ADCB2F1804F13D040F20043C4F20003BB
:101CC0009A420DD011E000BF42F60043C4F2010376
:101CD0009A4205D040F60003C4F200039A4204D1B0
:101CE00049682CF08003194391600121002280F89B
:101CF0003D1080F83C20BDE81040104670470000C1
:101D0000002804BF0120704710B590F83D1031B98C
:101D1000002180F83C10044600F068F820460221BB
:101D200080F83D10016840F2FF740B68C4F20004B3
:101D300042F6004CA142C4F2010C15DCB1F1804F17
:101D40001AD040F20042C4F20002914214D0A142E3
:101D500018DCB1F1804F1DD040F20042C4F2000205
:101D6000914217D01AE000BF614505D040F600024D
:101D7000C4F200029142EAD1826823F07003134357
:101D8000A142E6DD614505D040F60002C4F2000242
:101D9000914203D1026923F440731343846923F011
:101DA0008002D0F804E0C368224361450A60CB6238
:101DB000C1F828E002D14269CCF8302001224A6102
:101DC00080F8462080F83E2080F83F2080F84020B0
:101DD00080F8412080F8422080F8432080F8442099
:101DE00080F8452080F83D20002010BD80B582B0ED
:101DF000006840F60001C4F2000188421ED042F69D
:101E00000041C4F20101884225D141F21800C4F218
:101E100002000168002241F40061016000680121B4
:101E200000F40060019001981920FFF773FB19205E
:101E300002B0BDE88040FFF75BBB00BF41F2180075
:101E4000C4F20200416841F004014160406800F0C2
:101E500004000090009802B080BD000090F83D1092
:101E600001291CBF01207047022180F83D10006845
:101E700040F2FF71C4F20001884209DCB0F1804FEA
:101E800012D040F20041C4F2000188420CD012E0AE
:101E900042F60041C4F20101884205D040F600013B
:101EA000C4F20001884206D1816801F007010629C9
:101EB00004BF00207047016841F00101016000206B
:101EC0007047000090F83D1001291CBF01207047A9
:101ED000022180F83D10006840F2FF72C168C4F230
:101EE0000002904241F00101C16009DCB0F1804F75
:101EF00012D040F20041C4F2000188420CD012E03E
:101F000042F60041C4F20101884205D040F60001CA
:101F1000C4F20001884206D1816801F00701062958
:101F200004BF00207047016841F0010101600020FA
:101F3000704700000146006841F21113026A1A421C
:101F400004D00122002081F83D207047026A40F24F
:101F500044431A42F5D1026822F0010202600122D4
:101F6000002081F83D20704790F83C20012A4FF076
:101F700002026CD080B580F83D20D0F800C04FF64A
:101F80007772DCF8083023EA0202CCF808200B68EC
:101F90004F2B29DC1F2B45DD202B46D0302B44D086
:101FA000402B40F0AF80D1F804E0C968DCF8203065
:101FB000DCF8202022F00102CCF82020DCF81820E8
:101FC00022F0F00242EA011123F00A0242EA0E0274
:101FD000CCF81810CCF82020DCF8081041F04701AC
:101FE00021F0300128E000BF6F2B33DDB3F5005F37
:101FF00074D0B3F5805F21D0702B40F08380D1E99D
:1020000001E3C968DCF8082043EA0E0322F47F42AA
:1020100043EA01211143CCF80810DCF8081041F024
:10202000770109E00BB1102B6CD1DCF8081021F01E
:102030007001194341F00701CCF80810002201217A
:1020400080F83D10002180F83C10BDE8804010462B
:10205000704700BF502B21D0602B53D1D1F804E042
:10206000C968DCF82030DCF8202022F01002CCF81F
:102070002020DCF8182022F4704242EA013123F0DB
:10208000A00242EA0E12CCF81810CCF82020DCF89E
:10209000081041F0670121F01001CDE7D1F804E00C
:1020A000C968DCF82030DCF8202022F00102CCF8EE
:1020B0002020DCF8182022F0F00242EA011123F07F
:1020C0000A0242EA0E02CCF81810CCF82020DCF804
:1020D000081041F0570121F02001ADE7D1E901E3FB
:1020E000C968DCF8082043EA0E0322F47F4243EA81
:1020F00001211143CCF80810DCF8081041F48041AC
:102100009AE700BF01229AE77047000010B5016806
:1021100004460869800744BFC8685FEA807039D404
:102120000869400744BFC8685FEA40703ED4086948
:10213000000744BFC8685FEA007045D40869C0065C
:1021400044BFC8685FEAC0604AD40869C0071CBFC2
:10215000C8685FEAC07051D10869000644BFC8680A
:102160005FEA006052D40869400644BFC8685FEA6D
:10217000406053D40869800646BFC8685FEA806043
:1021800010BD6FF0200220460A61BDE81040FFF745
:1021900075BD00BF6FF002000861012020778869DB
:1021A000800743D02046FFF7AFFF45E06FF0040003
:1021B000086102202077886910F4407F40D02046D3
:1021C000FFF7A2FF42E000BF6FF0080008610420A3
:1021D0002077C86980073DD02046FFF795FF3FE094
:1021E0006FF01000086108202077C86910F4407F64
:1021F0003AD02046FFF788FF3CE000BF6FF00100B7
:102200000861204600F0A6FA2168A5E76FF080007B
:1022100008612046FFF730FD2168A4E76FF0400019
:102220000861204600F09CFA2168A3E7204600F0F0
:102230007DF8204600F01EFA2168002020776FE725
:10224000204600F073F8204600F014FA21680020C0
:1022500020776CE7204600F069F8204600F00AFA83
:1022600021680020207769E7204600F05FF82046CB
:1022700000F000FA21680020207766E780B586B07C
:10228000006840F20041C4F2000188424FF00001B2
:10229000CDE90411CDE902112CD0B0F1804F42D12B
:1022A00041F21800C4F20200016841F00801016027
:1022B000006802A900F00800019001984FF4406006
:1022C000029002200390059040F60040C4F2010005
:1022D000FEF78CFF0420C4F2010001684FF6FF42B4
:1022E000CFF6FF02114041F0E06141F4007101605E
:1022F00006B080BD41F21800C4F20200016841F04E
:1023000008010160006802A900F00800019001982E
:102310000120029002200390059040F60040C4F294
:102320000100FEF763FF06B080BD000070470000AB
:1023300090F83C30012B04BF022070474FEAB202F4
:10234000032A00F2F1802DE9F043DFE802F003A553
:102350003B7500BF036842F600461D6A1A6AC4F264
:10236000010622F001021A621A465C6852F818CF80
:10237000B3428E68D1F800E025F0020545EA060573
:102380000CD1CE68D1E9057824F4407425F00C0511
:1023900026F004063C43354344EA08042CF0730756
:1023A00047EA0E075C609F614F6809695F631D62C1
:1023B0009F6947F008079F619F6927F004079F61A5
:1023C000A6E000BF036842F600461D6A1A6AC4F21E
:1023D000010622F480721A621A46D3F804C052F839
:1023E0001CEFB3428E680C6825F4007545EA06259B
:1023F0000FD1CE68D1E90598360240F2FF4725F4A7
:102400004065BE4335432CF4405748EA090647EA85
:10241000061C2EF073072743C3F804C0DF614F6822
:102420000969DF631D62DF6947F00807DF61DF6963
:1024300027F00407DF616BE0036842F60047D3F83A
:1024400020C01A6AC4F2010722F480521A621A46A6
:102450005C6852F81C5FD1F800E08E68BB4204D182
:102460004F6924F4804444EA87142CF4005747EA67
:10247000063725F4E64646EA0E265C60DE614E68C5
:1024800009691E641F62DF6947F40067DF61DF6965
:1024900027F48067DF613AE0036842F600461D6A70
:1024A0001A6AC4F2010622F010021A621A46D3F820
:1024B00004C052F8184FB3428E68D1F800E025F0FE
:1024C000200545EA06150FD1CE68D1E905986FF0D1
:1024D000400725F0C00507EA061635432CF440678F
:1024E00048EA090647EA860C24F4E64444EA0E2743
:1024F000C3F804C09F614F6809699F631D629F69AB
:1025000047F400679F619F6927F480679F61090214
:102510001368194311600021BDE8F043002280F8E0
:102520003C200846704700BF0121002280F83C2073
:1025300008467047002804BF0120704710B590F886
:102540003D1031B9002180F83C10044600F068F8D5
:102550002046022180F83D10016840F2FF740B68AC
:10256000C4F2000442F6004CA142C4F2010C15DC96
:10257000B1F1804F1AD040F20042C4F20002914201
:1025800014D0A14218DCB1F1804F1DD040F20042BE
:10259000C4F20002914217D01AE000BF614505D095
:1025A00040F60002C4F200029142EAD1826823F0B0
:1025B00070031343A142E6DD614505D040F60002F9
:1025C000C4F20002914203D1026923F44073134321
:1025D000846923F08002D0F804E0C3682243614597
:1025E0000A60CB62C1F828E002D14269CCF8302001
:1025F00001224A6180F8462080F83E2080F83F2082
:1026000080F8402080F8412080F8422080F8432064
:1026100080F8442080F8452080F83D20002010BD3F
:1026200082B0006840F20041C4F20001884211D03B
:10263000B0F1804F1BD141F21C00C4F202000168CE
:1026400041F001010160006800F001000190019873
:1026500002B0704741F21C00C4F20200016841F070
:1026600002010160006800F002000090009802B0D2
:102670007047000070470000C1B1042908D0082944
:1026800014BF41224022825C012A05D016E000BF1F
:102690003F22825C012A11D10222082910D004298C
:1026A00014BF80F8412080F83F200BE090F83E20D6
:1026B000012A03D1022280F83E2003E00120704766
:1026C00080F84020006801F01F010122036A8A405F
:1026D00023EA02010162036A42F64441C4F20101A5
:1026E0001A43A1F14403984202620FD040F2FF71F5
:1026F000C4F20001884213DCB0F1804F1CD040F2DC
:102700000041C4F20001884216D01CE00A6842F47D
:1027100000420A6040F2FF71C4F200018842EBDD22
:1027200042F60041C4F20101884205D040F60001A2
:10273000C4F20001884206D1816801F00701062930
:1027400004BF00207047016841F0010101600020D2
:102750007047000040F24C20C2F2000003F0D0BAF3
:1027600070470000FEE70000FEE70000FEE7000003
:102770007047000070470000FEF752BE704700002F
:1027800040F2BC20C2F20000FFF7C0BCFEE7000030
:10279000B0B51C460B460546C5E9003200F10801FC
:1027A00018460822FEF7DEF92088A5F84800608860
:1027B000A5F84A00A088A5F84C00E088A5F84E00CE
:1027C0002089A5F850006089A5F85200A089A5F8D5
:1027D0005400E089A5F85600B0BD000070B50D4664
:1027E0000446FEF717FE8DB1064601E028040DD021
:1027F0002068A1880122FEF707FEFEF70BFEB0421B
:10280000F4D0013DFEF706FE0646EFE72068A188FA
:102810000022BDE87040FEF7F7BD00000161002115
:102820008282417370470000002908BF70472DE97C
:10283000F0410C46054640F201180027012605E04C
:102840008F814A70013C05F104052DD02968086983
:10285000898AFEF7D3FD29688A78904205D088706E
:10286000CE70FEF7D7FD29684860C87870B1FEF7D2
:10287000D1FD29684A68801A0F2807D38A78CF705B
:102880000A7048788242DDD004E000BF0A784878B8
:102890008242D7D0002AD3D1A1F80C80FEF7BAFD2E
:1028A00029680A788860CCE7BDE8F04170470000ED
:1028B00010B50446016082800020A071FEF7AAFDD9
:1028C000A06010BD70B50E460546104600211C469E
:1028D00000F0AEFF306800F053F948B16420FEF715
:1028E00037FB284603F044FA20466421FFF776FFC1
:1028F000706800F045F9002808BF70BD6420FEF73D
:1029000027FB284603F08AFA20466421BDE8704080
:10291000FFF764BF70B50E460546104601211C4600
:1029200000F086FF306800F02BF950B16420FEF70C
:102930000FFB2846022103F06DFA2846002100F023
:10294000D9F9706800F01CF958B16420FEF700FB5B
:1029500028466FF0010103F05DFA2846002100F0DF
:10296000C9F9B06800F00CF9002808BF70BD28460E
:1029700003F080F86420FEF7EBFA20466421BDE8FE
:102980007040FFF72BBF000070B50C4606460846A6
:102990000621154600F04CFF304603F021F90021D6
:1029A000C4F2F011FDF7A0FC002818BF70BD20464E
:1029B000032100F03DFFFA20FEF7CAFA2846642101
:1029C000FFF70CFF2046062100F032FFFA20BDE899
:1029D0007040FEF7BDBA000010B540F2D010C2F250
:1029E0000000203000F0D2F800F08104812C06D1E4
:1029F00040F2D010C2F20000002100F019FFA4F153
:102A00008100B0FA80F0400910BD0000B0B540F27E
:102A1000D010C2F2000000F12005284600F0B6F800
:102A200000F08100B0F1810418BF0124812813D087
:102A3000284600F0ABF8F7280BD8284600F0A6F897
:102A4000EF2806D8284600F0A1F8FC283CBF00205B
:102A5000B0BD022101E000BF002140F2D010C2F25F
:102A6000000000F0E5FE2046B0BD0000B0B540F229
:102A7000D010C2F2000000F12005284600F086F8D0
:102A800000F08100B0F1810418BF0124812817D023
:102A9000284600F07BF800F0070107294FF00101FC
:102AA0000FD000F03B023B2A0BD000F01E021E2A82
:102AB00007D000F00F000F281CBF0020B0BD00E0C1
:102AC000002140F2D010C2F2000000F0B1FE20461A
:102AD000B0BD000080B586B00490012005900020B4
:102AE000029002A801A9FEF747FA06B080BD0000D7
:102AF000FEF7BABA002A08BF7047B0B54FF0000C15
:102B00000CF102035CF800E09BB2934221F80CE068
:102B100018D20CF104041D581FFA84FE9645CD52BC
:102B200010D20CF106035EF800409BB2934221F8EC
:102B30000E4007D20CF108041D581FFA84FC94457E
:102B4000CD52DDD3BDE8B04070470000FEF722BB98
:102B5000002A08BF7047F0B581B014460D460646FE
:102B6000002700BFEA5BB91901200023FEF786FAAF
:102B7000B81C87B2A742F5D301B0BDE8F04070475A
:102B8000407B002818BF0120704700000189028F98
:102B9000438F914242894FF0000188BF01219A4240
:102BA0004FF0000288BF0122B0F80CC0838F42EAC8
:102BB000410100229C4588BF01224FEA810CC38954
:102BC000C18F4CEA420C8B424FF0000188BF0121BB
:102BD000038AB0F84020614493424FF0000288BF5E
:102BE00001224FEA810C438AB0F842104CEA420CB1
:102BF0008B424FF0000188BF0121838AB0F8442046
:102C0000614493424FF0000288BF0122890041EAEB
:102C10004201C28AB0F846000023824288BF0123E5
:102C2000C818C0B27047000071B170B5042901F036
:102C3000030C0DD200220023BCF1000F35D1BDE8FA
:102C40007040C8B2704700BF0021C8B2704700BFD3
:102C500001F0FC01A0F11003C1F1000E00220021DF
:102C600053F8104F8900647BDE68B4FA84F4640979
:102C700041EA4401D3E90145043A647B6D7BB4FA2F
:102C800084F464092144B5FA85F4757B64098900EC
:102C900041EA4401B5FA85F4640996452144DFD13F
:102CA0004B005242BCF1000FC9D050F82210BCF1C9
:102CB000010F497BB1FA81F14FEA511141EA030159
:102CC000BDD000EB82004268BCF1020F527BB2FA29
:102CD00082F24FEA521242EA4101B0D08068407B52
:102CE000B0FA80F0400940EA4101BDE87040C8B246
:102CF0007047000082884FEAB202032A88BF7047FB
:102D0000036800891B6801EB810100EB410003EBC4
:102D1000820148637047000070B5064619280546D1
:102D200040F2EC00A8BF1925C2F200000C4615F1D4
:102D3000190FD8BF6FF018050C302946FFF7DAFFDE
:102D4000B6F1FF3F1CDDBEB346F21A00C0F600002C
:102D50002844132E94BFC078807A604300B241F2B9
:102D60007B414843C10C01EBD07041B240F254109A
:102D7000C2F2000060302246BDE8704002F0C0BEE2
:102D8000C5F10A0046F21A01C0B2C0F60001085CA3
:102D900041F27B41604300B24843C10C01EBD0706B
:102DA00042B240F25410C2F2000060302146BDE849
:102DB000704002F0A5BE00BF40F25410C2F2000005
:102DC000603021462246BDE8704002F099BE000006
:102DD000B0B5C368C469A34216D24069834238BF04
:102DE000B0BD40F25410C2F2000060300C46002129
:102DF0001546002202F072FE05F10F0041B2204696
:102E0000BDE8B040FFF788BF40F2EC00C2F200001E
:102E10000C30FFF76FFF40F25410C2F2000000F1D7
:102E2000600420460121012202F058FE20460021C4
:102E30000022BDE8B04002F063BE0000B0B5044619
:102E4000E28900680D4611460122FEF7DDFA20688E
:102E5000A1890122FEF7D8FA2068218905F0010234
:102E6000FEF7D2FA206861890122FEF7CDFA2068C8
:102E700061890022FEF7C8FA20682189C5F3400263
:102E8000FEF7C2FA206861890122FEF7BDFA2068C8
:102E900061890022FEF7B8FA20682189C5F3800213
:102EA000FEF7B2FA206861890122FEF7ADFA2068C8
:102EB00061890022FEF7A8FA20682189C5F3C002C3
:102EC000FEF7A2FA206861890122FEF79DFA2068C8
:102ED00061890022FEF798FA20682189C5F3001263
:102EE000FEF792FA206861890122FEF78DFA2068C8
:102EF00061890022FEF788FA20682189C5F3401213
:102F0000FEF782FA206861890122FEF77DFA2068C7
:102F100061890022FEF778FA20682189C5F38012C2
:102F2000FEF772FA206861890122FEF76DFA2068C7
:102F300061890022FEF768FA20682189EA09FEF714
:102F400063FA206861890122FEF75EFA20686189D0
:102F50000022FEF759FA2068E1880122FEF754FAB0
:102F60002068E1880022FEF74FFA2068A18900223C
:102F7000FEF74AFA2068E1890022BDE8B040FEF77A
:102F800043BA000010B5B2F800C00446A0F806C06D
:102F90005088208190886081D3880846A381118958
:102FA0000022E18161462060FEF72EFA2068218927
:102FB0000022FEF729FA206861890022FEF724FA30
:102FC0002068E1890122FEF71FFA2068A189012209
:102FD000BDE81040FEF718BA70B582B040F20005A7
:102FE000C2F2000505F1340604463046032102F022
:102FF00039FE403528460321FFF716FC30460321F1
:10300000FFF712FE072863D8DFE800F00436142427
:103010005C46563440F2D012C2F2000240F2EC0399
:1030200002F12000C2F20003294602B0BDE8704060
:10303000FFF748BC40F2EC03C2F2000340F2D012AA
:1030400003F10C00C2F20002294602B0BDE8704054
:10305000FFF760BC40F25410C2F2000040F2D01200
:103060006030C2F20002294602B0BDE8704000F0B4
:1030700013BB00BF02B070BD40F2D012C2F200021A
:1030800040F2EC0302F12000C2F20003294602B034
:10309000BDE8704002F014BF40F2EC02C2F2000240
:1030A00040F2D01102F11800C2F2000102B0BDE8F6
:1030B0007040FFF769BC00BF94F85100002184F80C
:1030C0003A1078B1204602B0BDE8704000F0DEBB97
:1030D00040F2D010C2F20000062102B0BDE87040FC
:1030E00000F0A6BB40F25410C2F200001830FFF707
:1030F00047FD024640F2EC0094F8383094F839600D
:10310000C2F2000040F2D0111830C2F20001009665
:1031100002F07CFC00F00101C0F3002084F83810BC
:1031200084F83900204602B0BDE8704000F0AEBB24
:1031300094B0FEF783F900240120CDE90F44CDE9D6
:103140000D440A900E904FF4E0104FF480310225A8
:1031500013900AA80394CDE90144CDE90B14CDE9FD
:103160001151FEF773FB28B1EFF3108072B600BF68
:10317000FEE700BF0F20CDE904054FF48060CDE9E4
:10318000070404A802210694FEF782FA20B1EFF3A7
:10319000108072B6FEE700BF4FF0020A4FF40049FC
:1031A0006846CDF800A0CDF80890FEF7EFF928B1F9
:1031B000EFF3108072B600BFFEE700BF4FF0000BC8
:1031C00041F21804CDE90CBBCDE90ABBC4F20204FC
:1031D000206840F6004840F0100020602068C4F2EB
:1031E000010800F010000490049820684FF21A3192
:1031F00040F0200020602068002200F020000490B1
:103200000498206840F004002060206800F004006A
:1032100004900498206840F008002060206800F0C6
:103220000800049004984046FEF7EEF8A8F5806583
:1032300028464FF4F8510022FEF7E6F84FF46040BC
:103240000AAECDE90A0B012708F5806031460C97DC
:10325000FDF7CCFF12200AA981E8810840463146DB
:103260000D97FDF7C3FF4FF4E6400AA981E88104FA
:10327000404631460D97FDF7B9FF48F208000AA90C
:1032800081E8810440463146CDF834A0FDF7AEFF19
:103290004FF498500AA981E8810828463146CDF8B4
:1032A00034A0FDF7A3FF4FF440600AA981E881082C
:1032B000284631460D97FDF799FF0020C1F23100F5
:1032C000CDE90B0728463146CDF82890FDF78EFF53
:1032D000E020CDE90A0B404631460C97FDF786FF0A
:1032E000282001210022FEF715F92820FEF700F919
:1032F00054F8040C002140F0010044F8040C54F888
:10330000040C002200F001000A900A980B20FEF73E
:1033100001F90B20FEF7ECF840F24C30A8F58431AF
:10332000C2F2000044F61F63CDE904BBCDE90FBB38
:10333000CDE90DBB232280E80608C0E9033BC0F8B5
:1033400018B0FFF7F7F828B1EFF3108072B600BF9E
:10335000FEE700BF40F24C30C2F2000004A9FEF7C5
:103360008FFC28B1EFF3108072B600BFFEE700BFFC
:1033700060200A9040F24C300024C2F200000AA9FA
:103380000822CDE90B440E94FEF7D2FF20B1EFF3F3
:10339000108072B6FEE700BF40F24C30C2F200006F
:1033A000FEF76CFF40F20430C2F200004FF08041A3
:1033B00040F2E733CDE90444CDE90F44CDE90D44B3
:1033C000472280E81600C0E903348461FFF7B2F8B1
:1033D00020B1EFF3108072B6FEE700BF40F2043078
:1033E000C2F2000004A9FEF74BFC28B1EFF31080F5
:1033F00072B600BFFEE700BF60200A900020CDE952
:103400000B0004200E9040F20430C2F200000AA922
:103410000822FEF78DFF28B1EFF3108072B600BFCF
:10342000FEE700BF40F20430C2F200000AA90C22FD
:10343000FEF77EFF20B1EFF3108072B6FEE700BF0B
:1034400040F20430C2F20000FEF718FF40F2BC2048
:10345000002108F50052C2F20000472340F2E7378E
:103460000D91CDE90B11CDE90411C0E90023C0E9AC
:103470000217C0E904118161FEF742FC20B1EFF3AD
:10348000108072B6FEE700BF4FF480500A9040F201
:10349000BC20C2F200000AA9FEF766FD20B1EFF3DE
:1034A000108072B6FEE700BF40F2BC20C2F20000FE
:1034B00004A9FEF7E5FB18B1EFF3108072B6FEE742
:1034C00040F294300021A8F58232C2F20000472376
:1034D0004FF6FF770D91CDE90B11CDE90411C0E94D
:1034E0000023C0E9021701618161FEF709FC18B1F0
:1034F000EFF3108072B6FEE74FF480500A9040F26E
:103500009430C2F200000AA9FEF72EFD20B1EFF3BD
:10351000108072B6FEE700BF40F29430C2F20000A5
:1035200004A9FEF7ADFB18B1EFF3108072B6FEE709
:1035300040F2780008F5C051C2F2000000254FF4B7
:10354000807201244FF46023C0E900150821047340
:103550000575C36182600161FDF704FA20B1EFF3E4
:10356000108072B6FEE700BF07200C9040F2780092
:10357000C2F200000AA9CDE90A54FDF731F918B1E9
:10358000EFF3108072B6FEE701200A9040F2780057
:103590000224C2F200000AA90B94FDF721F918B128
:1035A000EFF3108072B6FEE740F278000A9403242D
:1035B000C2F200000AA90B94FDF712F920B1EFF353
:1035C000108072B6FEE700BF40F278000A9404242F
:1035D000C2F200000AA90B94FDF702F920B1EFF343
:1035E000108072B6FEE700BF40F278000A9405240E
:1035F000C2F200000AA90B94FDF7F2F820B1EFF334
:10360000108072B6FEE700BF40F278000A940624EC
:10361000C2F200000AA90B94FDF7E2F820B1EFF323
:10362000108072B6FEE700BF40F278000A940724CB
:10363000C2F200000AA90B94FDF7D2F820B1EFF313
:10364000108072B6FEE700BF40F278050820C2F293
:1036500000050B900AA928460A94FDF7C1F818B195
:10366000EFF3108072B6FEE740F24C24C2F2000481
:1036700040F2680305F13002C2F2000320462946F9
:1036800002F00AF940F2BC20C2F20000FEF71AFC78
:103690002046FFF7A1FCFBE7B0B50D4604461046F7
:1036A000052100F0C5F82868FFF76AFA30B1204616
:1036B0006FF045016FF0270202F022FA6868FFF709
:1036C0005FFA20B120463221322202F019FAA868AE
:1036D000FFF756FA002808BFB0BD2046002100229F
:1036E00002F00EFA4FF4FA60FDF732FC2046012199
:1036F000012202F0F3F9C820FDF72AFC2046002140
:10370000002202F0EBF9C820BDE8B040FDF720BC74
:10371000B0B50546016008680C461F21816240F281
:10372000C111C1621989A9815889E8811888288244
:10373000588868829888A8821068DB88686050681A
:10374000EB82A8600020A8612046FEF795FFE9897A
:103750002046BDE8B040FEF78FBF0000B0B505467B
:1037600000F108044FF60040C0F601002146022295
:10377000FFF7C0F928894FF6BE01A0F66110CFF619
:10378000FF7188429CBF4FF4B8602080B0BD00003C
:1037900010B584B004464FF60000C0F6010069463B
:1037A0001022FFF7A7F9BDF80000BDF8021000BA1B
:1037B000000C208708BABDF80410000C608708BA16
:1037C000BDF80610000CA08708BABDF80810000C60
:1037D000E08708BABDF80A10000CA4F8400008BA47
:1037E000BDF80C10000CA4F8420008BABDF80E1089
:1037F000000CA4F8440008BA000CA4F8460004B079
:1038000010BD000010B50B680446036013884868BB
:10381000E38160605088896820829088A16060821E
:103820000020207506202077FDF7F4FDA06110BD73
:1038300070B50629044605D1002222750026002510
:1038400014E000BF01200529207588BF70BD45F632
:10385000F670C0F60000425C45F6FC70C0F6000051
:10386000465C46F20200C0F60000455C2068E18933
:10387000FDF7CAFD6068218A3246FDF7C5FDA068E4
:10388000618A2A46BDE87040FDF7BEBD2DE9F04FC4
:1038900081B040F25417C2F20007044607F1180045
:1038A000FFF76EF950B100200121C4E90000A060CB
:1038B000206184F83A1084F8500033E020694DF21A
:1038C000C041C0F2010188422CD3002084F850008E
:1038D00040F2EC00C2F200000C300021FFF70AFABF
:1038E00007F1600528460021002202F009F9284668
:1038F0000121012202F0F2F807F14800FFF740F938
:1039000020B994F83900002801F09480284600215D
:10391000002202F0E3F840F20B10A4F8500001B0CE
:10392000BDE8F08F94F850005A2800F29983DFE840
:1039300010F05B0097039703970397039703970390
:103940009703970397039703D20897039703970367
:103950009703970397039703970397035D007F03EC
:10396000AD03970397039703970397039703970371
:10397000D70219031F03970397039703970397032E
:1039800097039703DB03CF0365029703970397031E
:103990009703970397039703FF027B0269013103A3
:1039A0005D039703970397039703970339040D0467
:1039B0007900A7023F0497039703970397039703A0
:1039C0009703970397039703970397039703970327
:1039D0009703970397039703970397039703970317
:1039E000970397039703510172E700BF40F2EC0081
:1039F000C2F200000C3000210026FFF77BF907F12E
:103A0000600528460021002202F07AF828460121AC
:103A1000012202F063F8162084F85000266001B0FD
:103A2000BDE8F08F40F2D010C2F2000000F1200596
:103A30002846FFF7ABF8002800F004842846FFF77B
:103A4000A5F8DF2800F30C85C02800F2F387DFE833
:103A500010F0B10A8509B5018509E309F107CB0A20
:103A6000B501230AF107F107F1078F0AF107E3090E
:103A7000F107C309F107F107F107F107F107F107B2
:103A8000F1077F0AF107F107F107230AF107F107B0
:103A9000F107030AF107F107F107F107F107F10751
:103AA000F107F107F107F107F107F107F107F10756
:103AB000F107D90AF107F107F107F107F107F1075B
:103AC000F107C309F107F107F107F107F107F10762
:103AD000F107430AF107F107F107F107F107F107D1
:103AE000F107F107F107F107F107F107F107F10716
:103AF000F107F107F107F107F107F107F107F10706
:103B0000F107F107F107F107F107F107F107F107F5
:103B1000F107610AF107F107F107F107F107F10772
:103B2000F107F107F107F107F107F107F107F107D5
:103B3000F107030AF107F107F107F107F107F107B0
:103B4000F107F107F107F107F107F107F107F107B5
:103B5000F107A509F107F107F107F107F107F107EF
:103B6000F107F107F107F107F107F107F107F10795
:103B7000F107F107F107F107F107F107F107F10785
:103B8000F107F107F107F107F107F107F107F10775
:103B9000F107F107F107F107F107F107F107F10765
:103BA000F107F107F107F107F107F107F107F10755
:103BB000F107F107F107F107F107F107F107F10745
:103BC000F107F107F107F107F107F107F107F10735
:103BD000F107A5096068632800F2FA8240F2D0106C
:103BE000C2F200002030FEF7D1FF10F0E70000F035
:103BF0006D87072800F06887042840F06C87FE2056
:103C000000F065BF40F2D015C2F20005284606213B
:103C1000FFF70EFE20352846FEF7B8FF002800F01B
:103C200029832846FEF7B2FFDF2800F31984C02855
:103C300000F20087DFE810F0BE099208C200920887
:103C4000F008FE06D809C2003009FE06FE06FE0690
:103C50009C09FE06F008FE06D008FE06FE06FE06DB
:103C6000FE06FE06FE06FE068C09FE06FE06FE06A3
:103C70003009FE06FE06FE061009FE06FE06FE06DA
:103C8000FE06FE06FE06FE06FE06FE06FE06FE0614
:103C9000FE06FE06FE06FE06E609FE06FE06FE0619
:103CA000FE06FE06FE06FE06D008FE06FE06FE0620
:103CB000FE06FE06FE06FE065009FE06FE06FE068F
:103CC000FE06FE06FE06FE06FE06FE06FE06FE06D4
:103CD000FE06FE06FE06FE06FE06FE06FE06FE06C4
:103CE000FE06FE06FE06FE06FE06FE06FE06FE06B4
:103CF000FE06FE06FE06FE066E09FE06FE06FE0631
:103D0000FE06FE06FE06FE06FE06FE06FE06FE0693
:103D1000FE06FE06FE06FE061009FE06FE06FE066E
:103D2000FE06FE06FE06FE06FE06FE06FE06FE0673
:103D3000FE06FE06FE06FE06B208FE06FE06FE06AD
:103D4000FE06FE06FE06FE06FE06FE06FE06FE0653
:103D5000FE06FE06FE06FE06FE06FE06FE06FE0643
:103D6000FE06FE06FE06FE06FE06FE06FE06FE0633
:103D7000FE06FE06FE06FE06FE06FE06FE06FE0623
:103D8000FE06FE06FE06FE06FE06FE06FE06FE0613
:103D9000FE06FE06FE06FE06FE06FE06FE06FE0603
:103DA000FE06FE06FE06FE06FE06FE06FE06FE06F3
:103DB000FE06FE06FE06FE06B20800BF94F94F009E
:103DC00094F95450FCF7C3FA0023C3F6E0730022C1
:103DD000FCF718FAFCF7F2FA01466FF00100FEF763
:103DE0009BFF15F1030FC0F225860120A4F85200B5
:103DF000052084F8540001B0BDE8F08F40F2D010E7
:103E0000C2F200002030FEF7C1FE372800F3E8813F
:103E1000062800F0F281182800F0EF81302800F029
:103E2000EC8100F007BE00BF20686528C0F0028664
:103E300007F1600528460021002201F04FFE94F9A9
:103E40004F00FCF784FA0023C3F6E0730022FCF76E
:103E5000D9F9FCF7B3FA064640F2EC00C2F20000D2
:103E60000C300021FEF746FF28463146324601F06D
:103E700047FE352084F8500001B0BDE8F08F00BF48
:103E800040F2D010C2F200002030FEF77FFE40B2B8
:103E9000B0F1FF3F00F3CE8594F94F00FCF757FADD
:103EA00043F23333C3F6E3734FF03332FCF7AAF92E
:103EB000FCF784FA054640F2EC00C2F200000C3038
:103EC0000021FEF717FF07F1600029462A4601F09E
:103ED00017FE412084F8500001B0BDE8F08F00BF0C
:103EE00040F2D010C2F200002030FEF74FFE002852
:103EF00040F0A08540F2EC00C2F200000C30192125
:103F0000FEF7F8FE07F16005284600210022002692
:103F100001F0E4FD94F94F202846002101F0F0FD66
:103F20002660202084F8500001B0BDE8F08F00BF6B
:103F300040F2EC00C2F200000C300021FEF7DAFE85
:103F400007F1600528460021002201F0D9FD28462E
:103F50000121012201F0C2FD342084F8500001B09B
:103F6000BDE8F08F20685128C0F064852120B4E0BE
:103F700040F2D010C2F200002030FEF707FE3B28CE
:103F800000F33681182800F038811C2800F03581B4
:103F900000F050BD40F2D010C2F200002030FEF719
:103FA000F5FD000700F0468594F94F00FCF7CFF9C6
:103FB0000023C3F6E0730022FCF724F9FCF7FEF9B6
:103FC000054640F2EC00C2F200000C300021FEF782
:103FD00091FE07F1600029462A4601F091FD372045
:103FE00084F8500001B0BDE8F08F00BF40F2D0105F
:103FF000C2F200002030FEF7C9FDA08C07F1600579
:10400000A06028460121012201F068FD2846002118
:10401000002201F075FD28466FF013016FF01302C6
:1040200001F06EFD0B2084F8500001B0BDE8F08F68
:1040300020681D2800F2FC8440F2D010C2F200007B
:1040400000F1200640F2EC00C2F2000007F160052A
:104050004FF0010A00F10C084FF480792EE200BF06
:1040600040F2D010C2F200000621FFF7E1FB07F199
:10407000600420460121012201F030FD204600218C
:10408000002201B0BDE8F04F01F03ABD40F2D0107F
:10409000C2F2000000F120052846FEF777FDE02877
:1040A000C0F0B48040F2EC00C2F200000C301221EB
:1040B000FEF720FE07F1600000213C22002501F000
:1040C0001FFD2560202084F8500001B0BDE8F08F6E
:1040D00020685128C0F0AE842B2084F850000020C6
:1040E000206001B0BDE8F08F40F2D010C2F20000B5
:1040F0002030FEF74BFD002840F09C8440F2EC009D
:10410000C2F200000C306FF01801FEF7F3FD94F9D5
:104110004F00FCF71CF94CF6CD424CF6CC43CCF6E4
:10412000CC42C3F6EC73FCF76DF8FCF747F9014697
:1041300007F160006FF0090201F0E2FC002020604E
:104140002A2084F8500001B0BDE8F08F206865286F
:10415000C0F0708407F1600528460021002201F0BC
:10416000BDFC94F94F00FCF7F2F80023C3F6E073AE
:104170000022FCF747F8FCF721F9064640F2EC0074
:10418000C2F200000C300021FEF7B4FD2846314693
:10419000324601F0B5FC3F2084F8500001B0BDE884
:1041A000F08F00BF3E2084F8500001B0BDE8F08FD2
:1041B00040F2D010C2F200002030FEF7E7FCA08CE5
:1041C000A0600B2084F8500001B0BDE8F08F00BF64
:1041D0000B2084F850000020E06001B0BDE8F08FB3
:1041E00038280AD0702808D0602806D000F022BCF9
:1041F000E02802D03C2840F01D84A18C0B2084F8DC
:104200005000A16001B0BDE8F08F00BF00F00700D2
:1042100007284DD140F2EC00C2F200000C306FF0E4
:104220000E01FEF767FD07F160003721002200252F
:1042300001F066FC25602A2084F8500001B0BDE83A
:10424000F08F00BF94F94F00FCF781F80023C3F60C
:10425000E07300220025FBF7D5FFFCF7AFF801461D
:104260000A20FEF759FD402084F85000656001B037
:10427000BDE8F08F94F94F00FCF769F849F69A12FF
:1042800049F69913C9F69912C3F6E173FBF7BAFF21
:10429000FCF794F801466FF00900FEF73DFD36206B
:1042A00084F850000020606001B0BDE8F08F00BFCE
:1042B0002846FEF76BFCC02800F2AC87DFE810F060
:1042C00036084808C2001C084407BA035608C20052
:1042D0003607BA03BA03BA037008BA034407BA032D
:1042E0006007BA03BA03BA03BA03BA03BA03BA033C
:1042F000E407BA03BA03BA033607BA03BA03BA0328
:104300005207BA03BA03BA03BA03BA03BA03BA0329
:10431000BA03BA03BA03BA03BA03BA03BA03BA03B5
:104320000008BA03BA03BA03BA03BA03BA03BA035A
:104330006007BA03BA03BA03BA03BA03BA03BA03EB
:10434000AD07BA03BA03BA03BA03BA03BA03BA038E
:10435000BA03BA03BA03BA03BA03BA03BA03BA0375
:10436000BA03BA03BA03BA03BA03BA03BA03BA0365
:10437000BA03BA03BA03BA03BA03BA03BA03BA0355
:104380009808BA03BA03BA03BA03BA03BA03BA0362
:10439000BA03BA03BA03BA03BA03BA03BA03BA0335
:1043A0005207BA03BA03BA03BA03BA03BA03BA0389
:1043B000BA03BA03BA03BA03BA03BA03BA03BA0315
:1043C0000E08BA03BA03BA03BA03BA03BA03BA03AC
:1043D000BA03BA03BA03BA03BA03BA03BA03BA03F5
:1043E000BA03BA03BA03BA03BA03BA03BA03BA03E5
:1043F000BA03BA03BA03BA03BA03BA03BA03BA03D5
:10440000BA03BA03BA03BA03BA03BA03BA03BA03C4
:10441000BA03BA03BA03BA03BA03BA03BA03BA03B4
:10442000BA03BA03BA03BA03BA03BA03BA03BA03A4
:10443000BA03BA03BA03BA03BA03BA03BA03BA0394
:104440007E0800BF94F94F0094F95450FBF77FFFAA
:1044500046F26663C3F6D6734FF06632FFF7B8BC18
:10446000E02800F03985E72802D0FF2840F0E282FA
:10447000FEF7B2FA002800F0DD8200F040BB00BF7A
:1044800028460021002201F029FB6FF001000F21D6
:10449000FEF742FC40466FF00101FEF72BFC284678
:1044A0000021002201F02CFBA4F852A0052000BF3F
:1044B00084F8540020681E2880F0BA822846002123
:1044C000002201F01DFB28460121012201F006FB1C
:1044D0003046FEF75BFBC02800F23E81DFE810F0BB
:1044E00088019001C4007E01F800C2009A01C40056
:1044F000E400C200C200C200A401C200F800C20071
:104500002A01C200C200C200C200C200C200C20032
:104510005601C200C200C200E400C200C200C200D4
:104520001201C200C200C200C200C200C200C2002A
:10453000C200C200C200C200C200C200C200C2006B
:104540006401C200C200C200C200C200C200C200B8
:104550002A01C200C200C200C200C200C200C200E2
:104560003F01C200C200C200C200C200C200C200BD
:10457000C200C200C200C200C200C200C200C2002B
:10458000C200C200C200C200C200C200C200C2001B
:10459000C200C200C200C200C200C200C200C2000B
:1045A000B401C200C200C200C200C200C200C20008
:1045B000C200C200C200C200C200C200C200C200EB
:1045C0001201C200C200C200C200C200C200C2008A
:1045D000C200C200C200C200C200C200C200C200CB
:1045E0007601C200C200C200C200C200C200C20006
:1045F000C200C200C200C200C200C200C200C200AB
:10460000C200C200C200C200C200C200C200C2009A
:10461000C200C200C200C200C200C200C200C2008A
:10462000C200C200C200C200C200C200C200C2007A
:10463000C200C200C200C200C200C200C200C2006A
:10464000C200C200C200C200C200C200C200C2005A
:10465000C200C200C200C200C200C200C200C2004A
:10466000AC0100BF26E700BF94F9540010F1040F1D
:1046700040F3D580E068616988427FF60BAFE1695D
:104680008842FFF4FDAE40466FF00101FEF732FBB9
:1046900028460121012201F021FA284600210022AA
:1046A00001F02EFAF6E600BF94F954B0404600211E
:1046B000FEF720FB28460021002201F021FA1BF121
:1046C000030FA4BFA4F8529084F854A0F2E600BFF0
:1046D00094F9540010F1040F40F3A180E06861697F
:1046E000884240F25E81E169884280F04B81284631
:1046F0000021002201F0F2F94FF0FF300F21FEF708
:104700000BFB4EE194F95400042880F29280E0689B
:104710006169884240F26281E169884280F050819B
:1047200028460021002201F0D9F901200F21FEF7CF
:10473000F3FA53E194F9540004287ADA404601214F
:10474000FEF7D8FA28460021002201F0D9F9A4F892
:104750005290FF20ACE600BFE0287FF4ABAE94F9A6
:104760005400042875DAE0686169884240F2528199
:10477000E169884280F0408128460021002201F052
:10478000ADF902200F21FEF7C7FA43E140460021B0
:10479000FEF7B0FA28460021002201F0B1F9A4F892
:1047A0005290002084E600BF94F95400042840DAB7
:1047B00040460121FEF79EFA28460021002201F022
:1047C0009FF9A4F85290FE2072E600BF94F95400BD
:1047D000042849DB404603213EE000BF94F9540021
:1047E00010F1040F4CDC40466FF0010134E000BFD3
:1047F00094F9540010F1050F50DC40460F212BE0D6
:1048000094F9540010F1040F52DC40466FF002019D
:1048100022E000BF94F9540010F1040F60DC404620
:104820004FF0FF3118E000BF94F9540010F1040F6D
:104830006EDC404600210FE094F95400042875DB3B
:104840004046022108E000BF94F954000428C0F259
:1048500083804046012100BFFEF74CFA2846002124
:10486000002201F04DF925E6E0686169884204D92B
:10487000204603210022FEF7ABFA4046042160E007
:10488000E0686169884205D920466FF00201002284
:10489000FEF79EFA40466FF0020116E00528FFF68B
:1048A00009AE6FF00E000021FEF736FA02E600BFF7
:1048B000E0686169884205D920466FF00201002254
:1048C000FEF786FA40466FF00301FEF713FA28461A
:1048D0000021002201F014F9A4F852A00620E7E517
:1048E000E0686169884205D920466FF00101002225
:1048F000FEF76EFA40464FF0FF31FEF7FBF928460F
:104900000021002201F0FCF8A4F852A00420CFE519
:1049100040464FF0FF31FEF7EDF928460021002216
:1049200001F0EEF8A4F852900220C1E5E068616958
:10493000884204D9204603210022FEF749FA404666
:104940000321FEF7D7F928460021002201F0D8F80C
:10495000FA20A4F852A0ABE5E0686169884204D966
:10496000204602210022FEF733FA40460221FEF7DC
:10497000C1F928460021002201F0C2F8A4F852A093
:10498000FC2095E540464FF0FF31FEF7B3F928468D
:104990000121012201F0A2F828460021002201F0A5
:1049A000AFF840464FF0FF31FEF7A4F9284600214A
:1049B000002201F0A5F8A4F852A0032078E500BF7A
:1049C00040460121FEF796F928460121012201F017
:1049D00085F828460021002201F092F84046012186
:1049E000FEF788F928460021002201F089F8A4F892
:1049F0005290FD205CE500BF40460221FEF77AF9A7
:104A000028460121012201F069F8284600210022F0
:104A100001F076F840460221FEF76CF928460021A5
:104A2000002201F06DF8A4F852A0FB2040E500BF81
:104A30001E2803D101B0BDE8F08F00BF07F160056B
:104A400028460021002201F049F894F94F00FBF7B5
:104A50007EFC49F69A1249F69913C9F69912C3F6E3
:104A6000D973FBF7CFFBFBF7A9FC064640F2EC003D
:104A7000C2F200000C300021FEF73CF92846314616
:104A8000324601F03DF840F2D010C2F20000203072
:104A9000FEF77CF800F08100812809D140F2D010A7
:104AA000C2F20000002101B0BDE8F04FFEF7C0BE29
:104AB000FDF7ACFF0028BDD1FDF7D8FF0028B9D124
:104AC0001720FFF70ABB00BFFD2000E0002040B226
:104AD0002D21FEF721F940F2D016C2F2000606F1B0
:104AE00020052846FEF752F800F0810081280DD1FC
:104AF00040F2D010C2F200000021FEF799FE15200E
:104B000084F8500001B0BDE8F08F00BF2846FEF7E2
:104B10003DF800F08100812810D140F2D010C2F29F
:104B200000000021FEF784FEFDF7A0FF10B3332044
:104B300084F8500001B0BDE8F08F00BF2846FEF7B2
:104B400025F8F72809D82846FEF720F8EF2804D8DA
:104B50002846FEF71BF8FB28E6D940F2D010C2F237
:104B600000000221FEF764FE3D2084F8500001B0F1
:104B7000BDE8F08F30460521FEF75AFE2846FEF7C5
:104B800005F8E0283FF656AFDFE810F0DA04080336
:104B9000180308033403E2004C051803E400E200A4
:104BA000E200E200CA04E2003403E200E400E200B2
:104BB000E200E200E200E200E200E200E400E200E3
:104BC000E200E2008604E200E200E2005C02E200B1
:104BD000E200E200E200E200E200E200E200E200C5
:104BE000E200E200E200E200E200E2009C05E200F6
:104BF000E200E200E200E200E200E2008005E20002
:104C0000E200E200E200E200E200E2009002E200E4
:104C1000E200E200E200E200E200E200E200E20084
:104C2000E200E200E200E200E200E2005C02E200F8
:104C3000E200E200E200E200E200E200E200E20064
:104C4000E200E200E200E200E200E2004004E200F2
:104C5000E200E200E200E200E200E200E200E20044
:104C6000E200E200E200E200E200E2005C02E200B8
:104C7000E200E200E200E200E200E200E200E20024
:104C8000E200E200E200E200E200E2006805E20089
:104C9000E200E200E200E200E200E200E200E20004
:104CA000E200E200E200E200E200E200E200E200F4
:104CB000E200E200E200E200E200E200E200E200E4
:104CC000E200E200E200E200E200E2009002E20024
:104CD000E200E200E200E200E200E200E200E200C4
:104CE000E200E200E200E200E200E200E200E200B4
:104CF000E200E200E200E200E200E200E200E200A4
:104D0000E200E200E200E200E200E200A204E200CF
:104D1000E200E200E200E200E200E200E200E20083
:104D2000E200E200E200E200E200E200E200E20073
:104D3000E200E200E200E200E200E200E200E20063
:104D4000E200E200E200E200E200E200900200BFC6
:104D500070E600BF94F94F10A5E200BF94F94F0030
:104D600094F95450FBF7F3FA0023C3F6E0730022E2
:104D7000FBF748FAFBF722FB01466FF00200FDF754
:104D8000CBFF15F1030FFFF655AE0120A4F852003A
:104D9000062084F8540001B0BDE8F08F94F94F006C
:104DA00094F95450FBF7D3FA0023C3F6E0730022C2
:104DB000FBF728FAFBF702FB01460320FDF7ACFFE7
:104DC000032D3FF737AE0120A4F85200FA2084F8F3
:104DD000540001B0BDE8F08F94F94F0094F954509D
:104DE000FBF7B5FA0023C3F6E0730022FBF70AFADB
:104DF000FBF7E4FA01460020FDF78EFF032D3FF795
:104E000019AE4FF48070A4F85200FF2084F85400CB
:104E100001B0BDE8F08F00BF94F94F0094F95450F1
:104E2000FBF795FA0023C3F6E0730022FBF7EAF9DB
:104E3000FBF7C4FA01464FF0FF30FDF76DFF15F1A7
:104E4000030FFFF6F7AD0120A4F85200032084F809
:104E5000540001B0BDE8F08F94F94F0094F954501C
:104E6000FBF775FA0023C3F6E0730022FBF7CAF9DB
:104E7000FBF7A4FA01460120FDF74EFF032D3FF793
:104E8000D9AD4FF48070A4F85200FD2084F854008E
:104E900001B0BDE8F08F00BF94F94F0094F9545071
:104EA000FBF755FA0023C3F6E0730022FBF7AAF9DB
:104EB000FBF784FA01460020FDF72EFF15F1030FE2
:104EC000FFF6B8AD4FF48070A4F85200012084F8CA
:104ED000540001B0BDE8F08F94F94F0094F954509C
:104EE000FBF735FA0023C3F6E0730022FBF78AF9DB
:104EF000FBF764FA01460220FDF70EFF032D3FF792
:104F000099AD0120A4F85200FB2084F8540001B0B0
:104F1000BDE8F08F94F94F0094F95450FBF717FA5D
:104F20000023C3F6E0730022FBF76CF9FBF746FAA7
:104F300001460220FDF7F0FE032D3FF77BAD012077
:104F4000A4F85200FC2084F8540001B0BDE8F08FB2
:104F500094F94F00FBF7FBF90023C3F6E07300223E
:104F60000025FBF74FF9FBF729FA014600209CE1E9
:104F700094F94F0094F95450FBF7E9F90023C3F674
:104F8000E0730022FBF73EF9FBF718FA01464FF0F9
:104F9000FF30FDF7C1FE15F1030FFFF64BAD4FF4E7
:104FA0008070A4F85200022084F8540001B0BDE8DB
:104FB000F08F00BF94F9540010F1050F00F38680C4
:104FC00094F94F00FBF7C3F90023C3F6E073002206
:104FD000FBF718F9FBF7F2F901460F2001B0BDE825
:104FE000F04FFDF799BE00BF94F94F0094F954506B
:104FF000FBF7ADF915F1040F00F380800023C3F631
:10500000E073D8E094F94F0094F95450FBF79FF9FE
:105010000023C3F6E0730022FBF7F4F8FBF7CEF9A8
:1050200001460120FDF778FE032D3FF703AD4FF455
:105030008070A4F85200FE2084F8540001B0BDE84E
:10504000F08F00BF94F95400042880F2E481E068F6
:105050006169884214D994F94F00FBF778F949F651
:105060009A1249F69913C9F69912C3F6E973FBF738
:10507000C9F8FBF7A3F9024620460121FDF7A8FE77
:1050800094F94F00FBF763F949F69A1249F6991320
:10509000C9F69912C3F6E973FBF7B4F8FBF78EF97A
:1050A00001460120FDF738FEEBE600BF94F95400FD
:1050B0000428C0F2BF8094F94F00FBF748F946F28C
:1050C0006663C3F6E6734FF06632D4E20528FFF656
:1050D000B1AC94F94F00FBF73AF90023C3F6E07343
:1050E0000022FBF78FF8FBF769F901466FF00E001D
:1050F00001B0BDE8F04FFDF70FBE00BF46F266639A
:10510000C3F6E6734FF06632FBF77CF8FBF756F90F
:1051100001466FF00100FDF7FFFD0120A4F85200E9
:10512000042084F8540001B0BDE8F08F94F94F00DA
:1051300094F95450FBF70BF946F26663C3F6D67345
:105140004FF06632B2E600BF94F94F0094F9545024
:10515000FBF7FDF846F26663C3F6D6734FF066328E
:1051600064E600BF94F94F0094F95450FBF7EFF850
:1051700046F26663C3F6D6734FF0663276E600BF3A
:1051800094F94F0094F95450FBF7E1F846F2666346
:10519000C3F6D6734FF0663228E600BF94F9540088
:1051A00010F1040F00F34C8194F94F00FBF7CFF896
:1051B0000023C3F6E873002210E000BF94F9540006
:1051C00010F1040F00F3D08194F94F00FBF7BFF802
:1051D00046F26663C3F6E6734FF06632FBF712F8E9
:1051E000FBF7ECF801466FF0010001B0BDE8F04FAD
:1051F000FDF792BD94F9540010F1040F00F3E28121
:1052000094F94F00FBF7A3F80023C3F6E8730022DC
:1052100018E200BFE0287FF40DAC94F94F0094F938
:105220005450FBF794F846F26663C3F6D6734FF01A
:1052300066325BE6E0686169884210D994F94F00F4
:10524000FBF785F80023C3F6E0730022FAF7DAFFD4
:10525000FBF7B4F8024620460121FDF7B9FD94F9A9
:105260004F00FBF774F84FF2C3524CF28F23C5F690
:105270002842C3F6E573FAF7C5FFFBF79FF801462E
:105280000220FDF749FD3CE694F94F00FBF75FF87B
:1052900046F26663C3F6D6734FF06632FAF7B2FF92
:1052A000FBF78CF8014600200025FDF735FD4FF493
:1052B0008070A4F8520084F8545001B0BDE8F08F1B
:1052C00094F94F0094F95450FBF741F846F26663A5
:1052D000C3F6D6734FF066329EE600BF94F94F00D6
:1052E00094F95450FBF733F846F26663C3F6D6736D
:1052F0004FF066325CE500BF94F94F0094F95450CA
:10530000FBF725F846F26663C3F6D6734FF06632B4
:10531000FAF778FFFBF752F801466FF00100FDF74E
:10532000FBFC15F1030FFFF685AB2EE594F9540055
:1053300010F1050F00F3D48194F94F00FBF707F843
:1053400046F26663C3F6D6734FF0663240E600BF9E
:1053500094F94F0094F95450FAF7F9FF46F2666356
:10536000C3F6D6734FF0663202E500BF94F94F00E2
:1053700094F95450FAF7EBFF46F26663C3F6D6731E
:105380004FF06632FAF73EFFFBF718F801464FF090
:10539000FF30FDF7C1FC15F1030FFFF64BABBCE688
:1053A00094F94F0094F95450FAF7D1FF46F266632E
:1053B000C3F6D6734FF06632E4E500BF94F94F00B0
:1053C00094F95450FAF7C3FF042DC0F2978146F2C6
:1053D0006663C3F6E6734FF06632FAF713FFFAF727
:1053E000EDFF0146032001B0BDE8F04FFDF794BC8E
:1053F00094F94F0094F95450FAF7A9FF46F2666306
:10540000C3F6D6734FF066328EE500BF94F95400B0
:105410000428C0F2838194F94F00FAF798FF46F20E
:105420006663C3F6E6734FF06632FAF7EBFEFAF7FF
:10543000C5FF0146012001B0BDE8F04FFDF76CBC8F
:10544000E0686169884211D994F94F00FAF77FFF4B
:105450000023C3F6E0730022FAF7D4FEFAF7AEFF9A
:10546000024620466FF00101FDF7B2FC94F94F00AF
:10547000FAF76DFF4CF6CD424CF6CC43CCF6CC425D
:10548000C3F6E473FAF7BEFEFAF798FF01466FF031
:105490000200FDF741FC78E494F94F0094F9545070
:1054A000FAF755FF15F1040F40F3F9804CF6CD42A1
:1054B0004CF6CC43CCF6CC42C3F6EC73FAF7A2FE22
:1054C000FAF77CFF01464FF0FF30FDF725FCF9E4C9
:1054D00094F95400042880F2C680E068616988422B
:1054E00010D994F94F00FAF732FF0023C3F6E073A6
:1054F0000022FAF787FEFAF761FF024620460221F2
:10550000FDF766FC94F94F00FAF721FF4CF6CD4207
:105510004CF6CC43CCF6CC42C3F6E473F4E000BFC7
:1055200094F94F0094F95450FAF711FF15F1040F54
:1055300000F31E810023C3F6E8730022B7E000BF2A
:1055400094F9540010F1050F00F3268194F94F00EF
:10555000FAF7FDFE49F69A1249F69913C9F699121F
:10556000C3F6B97334E500BFE0686169884211D9B8
:1055700094F94F00FAF7EBFE0023C3F6E073002224
:10558000FAF740FEFAF71AFF024620466FF00101D3
:10559000FDF71EFC94F94F00FAF7D9FE4FF2C35203
:1055A0004CF28F23C5F62842C3F6E573FAF72AFEBC
:1055B000FAF704FF01466FF00100FDF7ADFBFEF7BF
:1055C00014BC00BFE0686169884215D994F94F00A6
:1055D000FAF7BDFE49F69A1249F69913C9F69912DF
:1055E000C3F6E973FAF70EFEFAF7E8FE0246204624
:1055F0004FF0FF31FDF7ECFB94F94F00FAF7A7FEEF
:1056000043F23333C3F6EB734FF03332FAF7FAFD5C
:10561000FAF7D4FE01466FF00100FDF77DFBFFF7BE
:1056200012BC00BF94F9540010F1040F00F3C480C1
:1056300094F94F00FAF78BFE46F26663C3F6E67301
:105640004FF06632FAF7DEFDFAF7B8FE01464FF08A
:10565000FF3001B0BDE8F04FFDF75EBB94F9540098
:105660000428C0F2CB8094F94F00FAF770FE0023B3
:10567000C3F6E8730022FAF7C5FDFAF79FFE01466C
:10568000022001B0BDE8F04FFDF746BB94F94F0092
:1056900094F95450FAF75BFE042DC0F2DB8049F612
:1056A0009A1249F69913C9F69912C3F6E973FAF7F3
:1056B000A9FDFAF783FE0146002001B0BDE8F04FD6
:1056C000FDF72ABB94F94F0094F95450FAF73FFEC6
:1056D000042DC0F2D1800023C3F6E8730022A4E6B3
:1056E0000528FFF6A7A994F94F00FAF730FE46F215
:1056F0006663C3F6D6734FF06632F2E446F2666331
:10570000C3F6D6734FF06632FAF77CFDFAF756FE11
:1057100001460320FDF700FBFFF755BBE068616918
:10572000884212D994F94F00FAF711FE46F26663E7
:10573000C3F6E6734FF06632FAF764FDFAF73EFE01
:10574000024620460121FDF743FB94F94F00FAF78A
:10575000FEFD0023C3F6E8730022FAF753FDFAF7C3
:105760002DFE01460220FDF7D7FAFFF7E8BB00BF88
:105770004CF6CD424CF6CC43CCF6CC42C3F6EC739F
:10578000FAF740FDFAF71AFE01464FF0FF30FDF739
:10579000C3FAFFF704BC00BF0528FFF64BA994F934
:1057A0004F00FAF7D4FD49F69A1249F69913C9F653
:1057B0009912C3F6B97394E4E0686169884213D919
:1057C00094F94F00FAF7C3FD46F26663C3F6E67339
:1057D0004FF06632FAF716FDFAF7F0FD0246204662
:1057E0004FF0FF31FDF7F4FA94F94F00FAF7AFFDEF
:1057F0000023C3F6E873002286E400BFE068616915
:10580000884210D994F94F00FAF7A1FD0023C3F69E
:10581000E0730022FAF7F6FCFAF7D0FD02462046C4
:105820000221FDF7D5FA94F94F00FAF790FD4CF6F6
:10583000CD424CF6CC43CCF6CC42C3F6E473FAF737
:10584000E1FCFAF7BBFD01460420FDF765FAFFF71E
:10585000BABA00BF4CF6CD424CF6CC43CCF6CC42A3
:10586000C3F6EC73FAF7CEFCFAF7A8FD0146012067
:10587000FDF752FAFFF7C5BA43F23333C3F6EB73C1
:105880004FF03332FAF7BEFCFAF798FD01460120DB
:10589000FDF742FAFFF7CBBB2DE9F04F81B01F684F
:1058A0000446876538684727876240F2E737C76252
:1058B000586840F2EC08E065986840F600462066BB
:1058C000D868C2F20008C4F20106C4E91902E16610
:1058D000404631460822FCF7EBFF40F2000A40F256
:1058E000D019C2F2000AC2F200090AF11C014846AE
:1058F0005246FDF787FF216E08F10C0B584608222F
:1059000000F0DAF840F25417E16DC2F2000707F137
:1059100060000AF108020AF12803FDF7F9FE626E41
:10592000A6F580614FF4805508F118004FF400434C
:10593000009500F08DF908F138003146202200F082
:10594000D5F908F150003146402200F0CFF9384631
:105950003146802200F0CAF906F5806507F118008B
:1059600029464FF40042FCF759FF07F13000294661
:105970004FF48042FCF752FF07F1480029464FF4EC
:105980000052FCF74BFFD4E91A2109F120050AF176
:105990004C032846FCF7FCFE08F128000AF110022F
:1059A0003146FDF7EFFA0026284626602687666313
:1059B00084F83B60FDF7EAF884F84C004FF420507F
:1059C000A4F84D005846A4F85060FDF7C7FE5846AD
:1059D0000021FDF78FF9462084F84F000520A084B0
:1059E0004FF4FA604FF47A7140F29C4240F21A434D
:1059F00084F83A60C4E90166C4E90366C4E90510A5
:105A0000C4E9072301B0BDE8F08F00002DE9F041A3
:105A1000069C984615460E4683B10746304603213C
:105A2000FDF706FF384600F0DBF80021C4F2F01164
:105A3000FAF776FC002818BF012412E000F0D0F835
:105A4000074630460021FDF7F3FE0021C4F2F011B5
:105A50003846FAF757FC20B930460121FDF7E8FE39
:105A60000024002D18BF012545EA080040EA042063
:105A7000BDE8F08170B50546FDF768F84FF60046C1
:105A8000C0F601063046FDF725F805F1080430465A
:105A900021460222FDF75CF8FDF72AF828894FF627
:105AA000BE01A0F66110CFF6FF7188429CBF4FF493
:105AB000B860208070BD0000002383714FF4B8638C
:105AC00003810B68016082804720986244F61F6C56
:105AD00008461146C3F82CC0FCF7CEBDB0B505464C
